{
  "_format": "hh-sol-artifact-1",
  "contractName": "IndexFund",
  "sourceName": "src/contracts/IndexFund.sol",
  "abi": [
    {
      "inputs": [],
      "stateMutability": "nonpayable",
      "type": "constructor"
    },
    {
      "inputs": [
        {
          "internalType": "address",
          "name": "user",
          "type": "address"
        }
      ],
      "name": "balanceOf",
      "outputs": [
        {
          "internalType": "uint256",
          "name": "",
          "type": "uint256"
        }
      ],
      "stateMutability": "view",
      "type": "function"
    },
    {
      "inputs": [
        {
          "internalType": "address",
          "name": "",
          "type": "address"
        }
      ],
      "name": "balances",
      "outputs": [
        {
          "internalType": "uint256",
          "name": "",
          "type": "uint256"
        }
      ],
      "stateMutability": "view",
      "type": "function"
    },
    {
      "inputs": [
        {
          "internalType": "uint256",
          "name": "amount",
          "type": "uint256"
        }
      ],
      "name": "buyToken",
      "outputs": [],
      "stateMutability": "payable",
      "type": "function"
    },
    {
      "inputs": [],
      "name": "calculatePricePerToken",
      "outputs": [],
      "stateMutability": "nonpayable",
      "type": "function"
    },
    {
      "inputs": [],
      "name": "compPrice",
      "outputs": [
        {
          "internalType": "int256",
          "name": "",
          "type": "int256"
        }
      ],
      "stateMutability": "view",
      "type": "function"
    },
    {
      "inputs": [],
      "name": "compPriceAggregator",
      "outputs": [
        {
          "internalType": "contract AggregatorV3Interface",
          "name": "",
          "type": "address"
        }
      ],
      "stateMutability": "view",
      "type": "function"
    },
    {
      "inputs": [],
      "name": "defiIncreased",
      "outputs": [],
      "stateMutability": "nonpayable",
      "type": "function"
    },
    {
      "inputs": [],
      "name": "getBalance",
      "outputs": [
        {
          "internalType": "uint256",
          "name": "",
          "type": "uint256"
        }
      ],
      "stateMutability": "view",
      "type": "function"
    },
    {
      "inputs": [],
      "name": "getPricesOfAllCoins",
      "outputs": [],
      "stateMutability": "nonpayable",
      "type": "function"
    },
    {
      "inputs": [],
      "name": "kncPrice",
      "outputs": [
        {
          "internalType": "int256",
          "name": "",
          "type": "int256"
        }
      ],
      "stateMutability": "view",
      "type": "function"
    },
    {
      "inputs": [],
      "name": "kncPriceAggregator",
      "outputs": [
        {
          "internalType": "contract AggregatorV3Interface",
          "name": "",
          "type": "address"
        }
      ],
      "stateMutability": "view",
      "type": "function"
    },
    {
      "inputs": [],
      "name": "mkrPrice",
      "outputs": [
        {
          "internalType": "int256",
          "name": "",
          "type": "int256"
        }
      ],
      "stateMutability": "view",
      "type": "function"
    },
    {
      "inputs": [],
      "name": "mkrPriceAggregator",
      "outputs": [
        {
          "internalType": "contract AggregatorV3Interface",
          "name": "",
          "type": "address"
        }
      ],
      "stateMutability": "view",
      "type": "function"
    },
    {
      "inputs": [],
      "name": "pricePerToken",
      "outputs": [
        {
          "internalType": "uint256",
          "name": "",
          "type": "uint256"
        }
      ],
      "stateMutability": "view",
      "type": "function"
    },
    {
      "inputs": [],
      "name": "redeemToken",
      "outputs": [],
      "stateMutability": "nonpayable",
      "type": "function"
    },
    {
      "inputs": [],
      "name": "snxPrice",
      "outputs": [
        {
          "internalType": "int256",
          "name": "",
          "type": "int256"
        }
      ],
      "stateMutability": "view",
      "type": "function"
    },
    {
      "inputs": [],
      "name": "snxPriceAggregator",
      "outputs": [
        {
          "internalType": "contract AggregatorV3Interface",
          "name": "",
          "type": "address"
        }
      ],
      "stateMutability": "view",
      "type": "function"
    },
    {
      "inputs": [],
      "name": "uniPrice",
      "outputs": [
        {
          "internalType": "int256",
          "name": "",
          "type": "int256"
        }
      ],
      "stateMutability": "view",
      "type": "function"
    },
    {
      "inputs": [],
      "name": "uniPriceAggregator",
      "outputs": [
        {
          "internalType": "contract AggregatorV3Interface",
          "name": "",
          "type": "address"
        }
      ],
      "stateMutability": "view",
      "type": "function"
    },
    {
      "stateMutability": "payable",
      "type": "receive"
    }
  ],
  "bytecode": "0x608060405273d6aa3d25116d8da79ea0246c4826eb951872e02e600160006101000a81548173ffffffffffffffffffffffffffffffffffffffff021916908373ffffffffffffffffffffffffffffffffffffffff160217905550731b39ee86ec5979ba5c322b826b3ecb8c79991699600260006101000a81548173ffffffffffffffffffffffffffffffffffffffff021916908373ffffffffffffffffffffffffffffffffffffffff1602179055507379291a9d692df95334b1a0b3b4ae6bc606782f8c600360006101000a81548173ffffffffffffffffffffffffffffffffffffffff021916908373ffffffffffffffffffffffffffffffffffffffff1602179055507324551a8fb2a7211a25a17b1481f043a8a8adc7f2600460006101000a81548173ffffffffffffffffffffffffffffffffffffffff021916908373ffffffffffffffffffffffffffffffffffffffff16021790555073656c0544ef4c98a6a98491833a89204abb045d6b600560006101000a81548173ffffffffffffffffffffffffffffffffffffffff021916908373ffffffffffffffffffffffffffffffffffffffff160217905550348015620001ba57600080fd5b50620001cb620001d160201b60201c565b62000929565b620001e16200027060201b60201c565b6064600854620001f291906200075b565b61012c600a546200020491906200075b565b600a6007546200021591906200075b565b60016009546200022691906200075b565b6101f46006546200023891906200075b565b620002449190620006bd565b620002509190620006bd565b6200025c9190620006bd565b620002689190620006bd565b600b81905550565b6000600160009054906101000a900473ffffffffffffffffffffffffffffffffffffffff1673ffffffffffffffffffffffffffffffffffffffff1663feaf968c6040518163ffffffff1660e01b815260040160a06040518083038186803b158015620002db57600080fd5b505afa158015620002f0573d6000803e3d6000fd5b505050506040513d601f19601f820116820180604052508101906200031691906200063b565b5050509150506000600260009054906101000a900473ffffffffffffffffffffffffffffffffffffffff1673ffffffffffffffffffffffffffffffffffffffff1663feaf968c6040518163ffffffff1660e01b815260040160a06040518083038186803b1580156200038757600080fd5b505afa1580156200039c573d6000803e3d6000fd5b505050506040513d601f19601f82011682018060405250810190620003c291906200063b565b5050509150506000600360009054906101000a900473ffffffffffffffffffffffffffffffffffffffff1673ffffffffffffffffffffffffffffffffffffffff1663feaf968c6040518163ffffffff1660e01b815260040160a06040518083038186803b1580156200043357600080fd5b505afa15801562000448573d6000803e3d6000fd5b505050506040513d601f19601f820116820180604052508101906200046e91906200063b565b5050509150506000600460009054906101000a900473ffffffffffffffffffffffffffffffffffffffff1673ffffffffffffffffffffffffffffffffffffffff1663feaf968c6040518163ffffffff1660e01b815260040160a06040518083038186803b158015620004df57600080fd5b505afa158015620004f4573d6000803e3d6000fd5b505050506040513d601f19601f820116820180604052508101906200051a91906200063b565b5050509150506000600560009054906101000a900473ffffffffffffffffffffffffffffffffffffffff1673ffffffffffffffffffffffffffffffffffffffff1663feaf968c6040518163ffffffff1660e01b815260040160a06040518083038186803b1580156200058b57600080fd5b505afa158015620005a0573d6000803e3d6000fd5b505050506040513d601f19601f82011682018060405250810190620005c691906200063b565b5050509150508460068190555083600781905550826008819055508160098190555080600a819055505050505050565b6000815190506200060781620008db565b92915050565b6000815190506200061e81620008f5565b92915050565b60008151905062000635816200090f565b92915050565b600080600080600060a086880312156200065457600080fd5b6000620006648882890162000624565b95505060206200067788828901620005f6565b94505060406200068a888289016200060d565b93505060606200069d888289016200060d565b9250506080620006b08882890162000624565b9150509295509295909350565b6000620006ca8262000882565b9150620006d78362000882565b9250817f7fffffffffffffffffffffffffffffffffffffffffffffffffffffffffffffff03831360008312151615620007155762000714620008ac565b5b817f800000000000000000000000000000000000000000000000000000000000000003831260008312161562000750576200074f620008ac565b5b828201905092915050565b6000620007688262000882565b9150620007758362000882565b9250827f7fffffffffffffffffffffffffffffffffffffffffffffffffffffffffffffff0482116000841360008413161615620007b757620007b6620008ac565b5b817f80000000000000000000000000000000000000000000000000000000000000000583126000841260008413161615620007f757620007f6620008ac565b5b827f80000000000000000000000000000000000000000000000000000000000000000582126000841360008412161615620008375762000836620008ac565b5b827f7fffffffffffffffffffffffffffffffffffffffffffffffffffffffffffffff0582126000841260008412161615620008775762000876620008ac565b5b828202905092915050565b6000819050919050565b6000819050919050565b600069ffffffffffffffffffff82169050919050565b7f4e487b7100000000000000000000000000000000000000000000000000000000600052601160045260246000fd5b620008e68162000882565b8114620008f257600080fd5b50565b62000900816200088c565b81146200090c57600080fd5b50565b6200091a8162000896565b81146200092657600080fd5b50565b6111c280620009396000396000f3fe6080604052600436106101185760003560e01c8063683d8009116100a0578063da9cb76811610064578063da9cb7681461036b578063e18ff1a014610396578063ead6f87c146103ad578063f2dfd2d7146103c4578063ffbfefec146103ef5761011f565b8063683d80091461028257806370a08231146102ad5780637b1b1de6146102ea578063a1c91b2614610315578063b3b60b7e146103405761011f565b80632f310bad116100e75780632f310bad146101d3578063409e89ce146101ea57806349b498ed146102015780635b2c29181461022c5780635ba9e017146102575761011f565b806312065fe01461012457806316830e4a1461014f57806327e235e31461017a5780632d296bf1146101b75761011f565b3661011f57005b600080fd5b34801561013057600080fd5b5061013961041a565b6040516101469190610d5c565b60405180910390f35b34801561015b57600080fd5b50610164610422565b6040516101719190610ce6565b60405180910390f35b34801561018657600080fd5b506101a1600480360381019061019c9190610baa565b610448565b6040516101ae9190610d5c565b60405180910390f35b6101d160048036038101906101cc9190610bd3565b610460565b005b3480156101df57600080fd5b506101e8610508565b005b3480156101f657600080fd5b506101ff61062f565b005b34801561020d57600080fd5b506102166106b4565b6040516102239190610ce6565b60405180910390f35b34801561023857600080fd5b506102416106da565b60405161024e9190610d01565b60405180910390f35b34801561026357600080fd5b5061026c6106e0565b6040516102799190610ce6565b60405180910390f35b34801561028e57600080fd5b50610297610706565b6040516102a49190610d01565b60405180910390f35b3480156102b957600080fd5b506102d460048036038101906102cf9190610baa565b61070c565b6040516102e19190610d5c565b60405180910390f35b3480156102f657600080fd5b506102ff610754565b60405161030c9190610d5c565b60405180910390f35b34801561032157600080fd5b5061032a61075a565b6040516103379190610ce6565b60405180910390f35b34801561034c57600080fd5b50610355610780565b6040516103629190610d01565b60405180910390f35b34801561037757600080fd5b50610380610786565b60405161038d9190610d01565b60405180910390f35b3480156103a257600080fd5b506103ab61078c565b005b3480156103b957600080fd5b506103c26107a3565b005b3480156103d057600080fd5b506103d9610b15565b6040516103e69190610ce6565b60405180910390f35b3480156103fb57600080fd5b50610404610b3b565b6040516104119190610d01565b60405180910390f35b600047905090565b600260009054906101000a900473ffffffffffffffffffffffffffffffffffffffff1681565b60006020528060005260406000206000915090505481565b600b548161046e9190610f89565b3410156104b0576040517f08c379a00000000000000000000000000000000000000000000000000000000081526004016104a790610d1c565b60405180910390fd5b806000803373ffffffffffffffffffffffffffffffffffffffff1673ffffffffffffffffffffffffffffffffffffffff16815260200190815260200160002060008282546104fe9190610e1c565b9250508190555050565b60008060003373ffffffffffffffffffffffffffffffffffffffff1673ffffffffffffffffffffffffffffffffffffffff1681526020019081526020016000205490506000811161058e576040517f08c379a000000000000000000000000000000000000000000000000000000000815260040161058590610d3c565b60405180910390fd5b6000600b548261059e9190610f89565b905060008060003373ffffffffffffffffffffffffffffffffffffffff1673ffffffffffffffffffffffffffffffffffffffff168152602001908152602001600020819055503373ffffffffffffffffffffffffffffffffffffffff166108fc829081150290604051600060405180830381858888f1935050505015801561062a573d6000803e3d6000fd5b505050565b6106376107a3565b60646008546106469190610e72565b61012c600a546106569190610e72565b600a6007546106659190610e72565b60016009546106749190610e72565b6101f46006546106849190610e72565b61068e9190610d88565b6106989190610d88565b6106a29190610d88565b6106ac9190610d88565b600b81905550565b600160009054906101000a900473ffffffffffffffffffffffffffffffffffffffff1681565b60085481565b600560009054906101000a900473ffffffffffffffffffffffffffffffffffffffff1681565b60065481565b60008060008373ffffffffffffffffffffffffffffffffffffffff1673ffffffffffffffffffffffffffffffffffffffff168152602001908152602001600020549050919050565b600b5481565b600360009054906101000a900473ffffffffffffffffffffffffffffffffffffffff1681565b60075481565b60095481565b6002600b5461079b9190610f89565b600b81905550565b6000600160009054906101000a900473ffffffffffffffffffffffffffffffffffffffff1673ffffffffffffffffffffffffffffffffffffffff1663feaf968c6040518163ffffffff1660e01b815260040160a06040518083038186803b15801561080d57600080fd5b505afa158015610821573d6000803e3d6000fd5b505050506040513d601f19601f820116820180604052508101906108459190610bfc565b5050509150506000600260009054906101000a900473ffffffffffffffffffffffffffffffffffffffff1673ffffffffffffffffffffffffffffffffffffffff1663feaf968c6040518163ffffffff1660e01b815260040160a06040518083038186803b1580156108b557600080fd5b505afa1580156108c9573d6000803e3d6000fd5b505050506040513d601f19601f820116820180604052508101906108ed9190610bfc565b5050509150506000600360009054906101000a900473ffffffffffffffffffffffffffffffffffffffff1673ffffffffffffffffffffffffffffffffffffffff1663feaf968c6040518163ffffffff1660e01b815260040160a06040518083038186803b15801561095d57600080fd5b505afa158015610971573d6000803e3d6000fd5b505050506040513d601f19601f820116820180604052508101906109959190610bfc565b5050509150506000600460009054906101000a900473ffffffffffffffffffffffffffffffffffffffff1673ffffffffffffffffffffffffffffffffffffffff1663feaf968c6040518163ffffffff1660e01b815260040160a06040518083038186803b158015610a0557600080fd5b505afa158015610a19573d6000803e3d6000fd5b505050506040513d601f19601f82011682018060405250810190610a3d9190610bfc565b5050509150506000600560009054906101000a900473ffffffffffffffffffffffffffffffffffffffff1673ffffffffffffffffffffffffffffffffffffffff1663feaf968c6040518163ffffffff1660e01b815260040160a06040518083038186803b158015610aad57600080fd5b505afa158015610ac1573d6000803e3d6000fd5b505050506040513d601f19601f82011682018060405250810190610ae59190610bfc565b5050509150508460068190555083600781905550826008819055508160098190555080600a819055505050505050565b600460009054906101000a900473ffffffffffffffffffffffffffffffffffffffff1681565b600a5481565b600081359050610b5081611130565b92915050565b600081519050610b6581611147565b92915050565b600081359050610b7a8161115e565b92915050565b600081519050610b8f8161115e565b92915050565b600081519050610ba481611175565b92915050565b600060208284031215610bbc57600080fd5b6000610bca84828501610b41565b91505092915050565b600060208284031215610be557600080fd5b6000610bf384828501610b6b565b91505092915050565b600080600080600060a08688031215610c1457600080fd5b6000610c2288828901610b95565b9550506020610c3388828901610b56565b9450506040610c4488828901610b80565b9350506060610c5588828901610b80565b9250506080610c6688828901610b95565b9150509295509295909350565b610c7c8161103f565b82525050565b610c8b81610ff5565b82525050565b6000610c9e602183610d77565b9150610ca982611092565b604082019050919050565b6000610cc1602283610d77565b9150610ccc826110e1565b604082019050919050565b610ce08161101f565b82525050565b6000602082019050610cfb6000830184610c73565b92915050565b6000602082019050610d166000830184610c82565b92915050565b60006020820190508181036000830152610d3581610c91565b9050919050565b60006020820190508181036000830152610d5581610cb4565b9050919050565b6000602082019050610d716000830184610cd7565b92915050565b600082825260208201905092915050565b6000610d9382610ff5565b9150610d9e83610ff5565b9250817f7fffffffffffffffffffffffffffffffffffffffffffffffffffffffffffffff03831360008312151615610dd957610dd8611063565b5b817f8000000000000000000000000000000000000000000000000000000000000000038312600083121615610e1157610e10611063565b5b828201905092915050565b6000610e278261101f565b9150610e328361101f565b9250827fffffffffffffffffffffffffffffffffffffffffffffffffffffffffffffffff03821115610e6757610e66611063565b5b828201905092915050565b6000610e7d82610ff5565b9150610e8883610ff5565b9250827f7fffffffffffffffffffffffffffffffffffffffffffffffffffffffffffffff0482116000841360008413161615610ec757610ec6611063565b5b817f80000000000000000000000000000000000000000000000000000000000000000583126000841260008413161615610f0457610f03611063565b5b827f80000000000000000000000000000000000000000000000000000000000000000582126000841360008412161615610f4157610f40611063565b5b827f7fffffffffffffffffffffffffffffffffffffffffffffffffffffffffffffff0582126000841260008412161615610f7e57610f7d611063565b5b828202905092915050565b6000610f948261101f565b9150610f9f8361101f565b9250817fffffffffffffffffffffffffffffffffffffffffffffffffffffffffffffffff0483118215151615610fd857610fd7611063565b5b828202905092915050565b6000610fee82610fff565b9050919050565b6000819050919050565b600073ffffffffffffffffffffffffffffffffffffffff82169050919050565b6000819050919050565b600069ffffffffffffffffffff82169050919050565b600061104a82611051565b9050919050565b600061105c82610fff565b9050919050565b7f4e487b7100000000000000000000000000000000000000000000000000000000600052601160045260246000fd5b7f6e6f7420656e6f7567682066756e647320746f20627579206120746f6b656e2060008201527f2100000000000000000000000000000000000000000000000000000000000000602082015250565b7f796f7520646f6e2774206861766520616e79206163636f756e7420776974682060008201527f7573000000000000000000000000000000000000000000000000000000000000602082015250565b61113981610fe3565b811461114457600080fd5b50565b61115081610ff5565b811461115b57600080fd5b50565b6111678161101f565b811461117257600080fd5b50565b61117e81611029565b811461118957600080fd5b5056fea2646970667358221220bd490c0552a21833b5d9795825fde44a24008c60a4fd8d30bfdf4f26fb1acef864736f6c63430008040033",
  "linkReferences": {},
  "deployedLinkReferences": {}
}