{
  "contractName": "OpenPunks",
  "abi": [
    {
      "inputs": [
        {
          "internalType": "string",
          "name": "_name",
          "type": "string"
        },
        {
          "internalType": "string",
          "name": "_symbol",
          "type": "string"
        },
        {
          "internalType": "uint256",
          "name": "_cost",
          "type": "uint256"
        },
        {
          "internalType": "uint256",
          "name": "_maxSupply",
          "type": "uint256"
        },
        {
          "internalType": "uint256",
          "name": "_allowMintingOn",
          "type": "uint256"
        },
        {
          "internalType": "string",
          "name": "_initBaseURI",
          "type": "string"
        },
        {
          "internalType": "string",
          "name": "_initNotRevealedUri",
          "type": "string"
        }
      ],
      "stateMutability": "nonpayable",
      "type": "constructor"
    },
    {
      "anonymous": false,
      "inputs": [
        {
          "indexed": true,
          "internalType": "address",
          "name": "owner",
          "type": "address"
        },
        {
          "indexed": true,
          "internalType": "address",
          "name": "approved",
          "type": "address"
        },
        {
          "indexed": true,
          "internalType": "uint256",
          "name": "tokenId",
          "type": "uint256"
        }
      ],
      "name": "Approval",
      "type": "event"
    },
    {
      "anonymous": false,
      "inputs": [
        {
          "indexed": true,
          "internalType": "address",
          "name": "owner",
          "type": "address"
        },
        {
          "indexed": true,
          "internalType": "address",
          "name": "operator",
          "type": "address"
        },
        {
          "indexed": false,
          "internalType": "bool",
          "name": "approved",
          "type": "bool"
        }
      ],
      "name": "ApprovalForAll",
      "type": "event"
    },
    {
      "anonymous": false,
      "inputs": [
        {
          "indexed": true,
          "internalType": "address",
          "name": "previousOwner",
          "type": "address"
        },
        {
          "indexed": true,
          "internalType": "address",
          "name": "newOwner",
          "type": "address"
        }
      ],
      "name": "OwnershipTransferred",
      "type": "event"
    },
    {
      "anonymous": false,
      "inputs": [
        {
          "indexed": true,
          "internalType": "address",
          "name": "from",
          "type": "address"
        },
        {
          "indexed": true,
          "internalType": "address",
          "name": "to",
          "type": "address"
        },
        {
          "indexed": true,
          "internalType": "uint256",
          "name": "tokenId",
          "type": "uint256"
        }
      ],
      "name": "Transfer",
      "type": "event"
    },
    {
      "inputs": [],
      "name": "allowMintingAfter",
      "outputs": [
        {
          "internalType": "uint256",
          "name": "",
          "type": "uint256"
        }
      ],
      "stateMutability": "view",
      "type": "function",
      "constant": true
    },
    {
      "inputs": [
        {
          "internalType": "address",
          "name": "to",
          "type": "address"
        },
        {
          "internalType": "uint256",
          "name": "tokenId",
          "type": "uint256"
        }
      ],
      "name": "approve",
      "outputs": [],
      "stateMutability": "nonpayable",
      "type": "function"
    },
    {
      "inputs": [
        {
          "internalType": "address",
          "name": "owner",
          "type": "address"
        }
      ],
      "name": "balanceOf",
      "outputs": [
        {
          "internalType": "uint256",
          "name": "",
          "type": "uint256"
        }
      ],
      "stateMutability": "view",
      "type": "function",
      "constant": true
    },
    {
      "inputs": [],
      "name": "baseExtension",
      "outputs": [
        {
          "internalType": "string",
          "name": "",
          "type": "string"
        }
      ],
      "stateMutability": "view",
      "type": "function",
      "constant": true
    },
    {
      "inputs": [],
      "name": "cost",
      "outputs": [
        {
          "internalType": "uint256",
          "name": "",
          "type": "uint256"
        }
      ],
      "stateMutability": "view",
      "type": "function",
      "constant": true
    },
    {
      "inputs": [
        {
          "internalType": "uint256",
          "name": "tokenId",
          "type": "uint256"
        }
      ],
      "name": "getApproved",
      "outputs": [
        {
          "internalType": "address",
          "name": "",
          "type": "address"
        }
      ],
      "stateMutability": "view",
      "type": "function",
      "constant": true
    },
    {
      "inputs": [
        {
          "internalType": "address",
          "name": "owner",
          "type": "address"
        },
        {
          "internalType": "address",
          "name": "operator",
          "type": "address"
        }
      ],
      "name": "isApprovedForAll",
      "outputs": [
        {
          "internalType": "bool",
          "name": "",
          "type": "bool"
        }
      ],
      "stateMutability": "view",
      "type": "function",
      "constant": true
    },
    {
      "inputs": [],
      "name": "isPaused",
      "outputs": [
        {
          "internalType": "bool",
          "name": "",
          "type": "bool"
        }
      ],
      "stateMutability": "view",
      "type": "function",
      "constant": true
    },
    {
      "inputs": [],
      "name": "isRevealed",
      "outputs": [
        {
          "internalType": "bool",
          "name": "",
          "type": "bool"
        }
      ],
      "stateMutability": "view",
      "type": "function",
      "constant": true
    },
    {
      "inputs": [],
      "name": "maxMintAmount",
      "outputs": [
        {
          "internalType": "uint256",
          "name": "",
          "type": "uint256"
        }
      ],
      "stateMutability": "view",
      "type": "function",
      "constant": true
    },
    {
      "inputs": [],
      "name": "maxSupply",
      "outputs": [
        {
          "internalType": "uint256",
          "name": "",
          "type": "uint256"
        }
      ],
      "stateMutability": "view",
      "type": "function",
      "constant": true
    },
    {
      "inputs": [],
      "name": "name",
      "outputs": [
        {
          "internalType": "string",
          "name": "",
          "type": "string"
        }
      ],
      "stateMutability": "view",
      "type": "function",
      "constant": true
    },
    {
      "inputs": [],
      "name": "notRevealedUri",
      "outputs": [
        {
          "internalType": "string",
          "name": "",
          "type": "string"
        }
      ],
      "stateMutability": "view",
      "type": "function",
      "constant": true
    },
    {
      "inputs": [],
      "name": "owner",
      "outputs": [
        {
          "internalType": "address",
          "name": "",
          "type": "address"
        }
      ],
      "stateMutability": "view",
      "type": "function",
      "constant": true
    },
    {
      "inputs": [
        {
          "internalType": "uint256",
          "name": "tokenId",
          "type": "uint256"
        }
      ],
      "name": "ownerOf",
      "outputs": [
        {
          "internalType": "address",
          "name": "",
          "type": "address"
        }
      ],
      "stateMutability": "view",
      "type": "function",
      "constant": true
    },
    {
      "inputs": [],
      "name": "renounceOwnership",
      "outputs": [],
      "stateMutability": "nonpayable",
      "type": "function"
    },
    {
      "inputs": [
        {
          "internalType": "address",
          "name": "from",
          "type": "address"
        },
        {
          "internalType": "address",
          "name": "to",
          "type": "address"
        },
        {
          "internalType": "uint256",
          "name": "tokenId",
          "type": "uint256"
        }
      ],
      "name": "safeTransferFrom",
      "outputs": [],
      "stateMutability": "nonpayable",
      "type": "function"
    },
    {
      "inputs": [
        {
          "internalType": "address",
          "name": "from",
          "type": "address"
        },
        {
          "internalType": "address",
          "name": "to",
          "type": "address"
        },
        {
          "internalType": "uint256",
          "name": "tokenId",
          "type": "uint256"
        },
        {
          "internalType": "bytes",
          "name": "data",
          "type": "bytes"
        }
      ],
      "name": "safeTransferFrom",
      "outputs": [],
      "stateMutability": "nonpayable",
      "type": "function"
    },
    {
      "inputs": [
        {
          "internalType": "address",
          "name": "operator",
          "type": "address"
        },
        {
          "internalType": "bool",
          "name": "approved",
          "type": "bool"
        }
      ],
      "name": "setApprovalForAll",
      "outputs": [],
      "stateMutability": "nonpayable",
      "type": "function"
    },
    {
      "inputs": [
        {
          "internalType": "bytes4",
          "name": "interfaceId",
          "type": "bytes4"
        }
      ],
      "name": "supportsInterface",
      "outputs": [
        {
          "internalType": "bool",
          "name": "",
          "type": "bool"
        }
      ],
      "stateMutability": "view",
      "type": "function",
      "constant": true
    },
    {
      "inputs": [],
      "name": "symbol",
      "outputs": [
        {
          "internalType": "string",
          "name": "",
          "type": "string"
        }
      ],
      "stateMutability": "view",
      "type": "function",
      "constant": true
    },
    {
      "inputs": [],
      "name": "timeDeployed",
      "outputs": [
        {
          "internalType": "uint256",
          "name": "",
          "type": "uint256"
        }
      ],
      "stateMutability": "view",
      "type": "function",
      "constant": true
    },
    {
      "inputs": [
        {
          "internalType": "uint256",
          "name": "index",
          "type": "uint256"
        }
      ],
      "name": "tokenByIndex",
      "outputs": [
        {
          "internalType": "uint256",
          "name": "",
          "type": "uint256"
        }
      ],
      "stateMutability": "view",
      "type": "function",
      "constant": true
    },
    {
      "inputs": [
        {
          "internalType": "address",
          "name": "owner",
          "type": "address"
        },
        {
          "internalType": "uint256",
          "name": "index",
          "type": "uint256"
        }
      ],
      "name": "tokenOfOwnerByIndex",
      "outputs": [
        {
          "internalType": "uint256",
          "name": "",
          "type": "uint256"
        }
      ],
      "stateMutability": "view",
      "type": "function",
      "constant": true
    },
    {
      "inputs": [],
      "name": "totalSupply",
      "outputs": [
        {
          "internalType": "uint256",
          "name": "",
          "type": "uint256"
        }
      ],
      "stateMutability": "view",
      "type": "function",
      "constant": true
    },
    {
      "inputs": [
        {
          "internalType": "address",
          "name": "from",
          "type": "address"
        },
        {
          "internalType": "address",
          "name": "to",
          "type": "address"
        },
        {
          "internalType": "uint256",
          "name": "tokenId",
          "type": "uint256"
        }
      ],
      "name": "transferFrom",
      "outputs": [],
      "stateMutability": "nonpayable",
      "type": "function"
    },
    {
      "inputs": [
        {
          "internalType": "address",
          "name": "newOwner",
          "type": "address"
        }
      ],
      "name": "transferOwnership",
      "outputs": [],
      "stateMutability": "nonpayable",
      "type": "function"
    },
    {
      "inputs": [
        {
          "internalType": "uint256",
          "name": "_mintAmount",
          "type": "uint256"
        }
      ],
      "name": "mint",
      "outputs": [],
      "stateMutability": "payable",
      "type": "function",
      "payable": true
    },
    {
      "inputs": [
        {
          "internalType": "address",
          "name": "_owner",
          "type": "address"
        }
      ],
      "name": "walletOfOwner",
      "outputs": [
        {
          "internalType": "uint256[]",
          "name": "",
          "type": "uint256[]"
        }
      ],
      "stateMutability": "view",
      "type": "function",
      "constant": true
    },
    {
      "inputs": [
        {
          "internalType": "uint256",
          "name": "tokenId",
          "type": "uint256"
        }
      ],
      "name": "tokenURI",
      "outputs": [
        {
          "internalType": "string",
          "name": "",
          "type": "string"
        }
      ],
      "stateMutability": "view",
      "type": "function",
      "constant": true
    },
    {
      "inputs": [],
      "name": "getSecondsUntilMinting",
      "outputs": [
        {
          "internalType": "uint256",
          "name": "",
          "type": "uint256"
        }
      ],
      "stateMutability": "view",
      "type": "function",
      "constant": true
    },
    {
      "inputs": [
        {
          "internalType": "bool",
          "name": "_state",
          "type": "bool"
        }
      ],
      "name": "setIsRevealed",
      "outputs": [],
      "stateMutability": "nonpayable",
      "type": "function"
    },
    {
      "inputs": [
        {
          "internalType": "uint256",
          "name": "_newCost",
          "type": "uint256"
        }
      ],
      "name": "setCost",
      "outputs": [],
      "stateMutability": "nonpayable",
      "type": "function"
    },
    {
      "inputs": [
        {
          "internalType": "uint256",
          "name": "_newmaxMintAmount",
          "type": "uint256"
        }
      ],
      "name": "setmaxMintAmount",
      "outputs": [],
      "stateMutability": "nonpayable",
      "type": "function"
    },
    {
      "inputs": [
        {
          "internalType": "string",
          "name": "_notRevealedURI",
          "type": "string"
        }
      ],
      "name": "setNotRevealedURI",
      "outputs": [],
      "stateMutability": "nonpayable",
      "type": "function"
    },
    {
      "inputs": [
        {
          "internalType": "string",
          "name": "_newBaseURI",
          "type": "string"
        }
      ],
      "name": "setBaseURI",
      "outputs": [],
      "stateMutability": "nonpayable",
      "type": "function"
    },
    {
      "inputs": [
        {
          "internalType": "string",
          "name": "_newBaseExtension",
          "type": "string"
        }
      ],
      "name": "setBaseExtension",
      "outputs": [],
      "stateMutability": "nonpayable",
      "type": "function"
    },
    {
      "inputs": [
        {
          "internalType": "bool",
          "name": "_state",
          "type": "bool"
        }
      ],
      "name": "setIsPaused",
      "outputs": [],
      "stateMutability": "nonpayable",
      "type": "function"
    },
    {
      "inputs": [],
      "name": "withdraw",
      "outputs": [],
      "stateMutability": "payable",
      "type": "function",
      "payable": true
    }
  ],
  "bytecode": "0x60806040526040518060400160405280600581526020017f2e6a736f6e000000000000000000000000000000000000000000000000000000815250600c9080519060200190620000519291906200035e565b506001600f5560006011556000601260006101000a81548160ff0219169083151502179055506001601260016101000a81548160ff0219169083151502179055503480156200009f57600080fd5b5060405162004970380380620049708339818101604052810190620000c59190620005e6565b86868160009080519060200190620000df9291906200035e565b508060019080519060200190620000f89291906200035e565b5050506200011b6200010f6200017d60201b60201c565b6200018560201b60201c565b428311156200013957428362000132919062000744565b6011819055505b84600d8190555083600e81905550426010819055506200015f826200024b60201b60201c565b62000170816200027760201b60201c565b5050505050505062000867565b600033905090565b6000600a60009054906101000a900473ffffffffffffffffffffffffffffffffffffffff16905081600a60006101000a81548173ffffffffffffffffffffffffffffffffffffffff021916908373ffffffffffffffffffffffffffffffffffffffff1602179055508173ffffffffffffffffffffffffffffffffffffffff168173ffffffffffffffffffffffffffffffffffffffff167f8be0079c531659141344cd1fd0a4f28419497f9722a3daafe3b4186f6b6457e060405160405180910390a35050565b6200025b620002a360201b60201c565b80600b9080519060200190620002739291906200035e565b5050565b62000287620002a360201b60201c565b80601390805190602001906200029f9291906200035e565b5050565b620002b36200017d60201b60201c565b73ffffffffffffffffffffffffffffffffffffffff16620002d96200033460201b60201c565b73ffffffffffffffffffffffffffffffffffffffff161462000332576040517f08c379a00000000000000000000000000000000000000000000000000000000081526004016200032990620007e0565b60405180910390fd5b565b6000600a60009054906101000a900473ffffffffffffffffffffffffffffffffffffffff16905090565b8280546200036c9062000831565b90600052602060002090601f016020900481019282620003905760008555620003dc565b82601f10620003ab57805160ff1916838001178555620003dc565b82800160010185558215620003dc579182015b82811115620003db578251825591602001919060010190620003be565b5b509050620003eb9190620003ef565b5090565b5b808211156200040a576000816000905550600101620003f0565b5090565b6000604051905090565b600080fd5b600080fd5b600080fd5b600080fd5b6000601f19601f8301169050919050565b7f4e487b7100000000000000000000000000000000000000000000000000000000600052604160045260246000fd5b62000477826200042c565b810181811067ffffffffffffffff821117156200049957620004986200043d565b5b80604052505050565b6000620004ae6200040e565b9050620004bc82826200046c565b919050565b600067ffffffffffffffff821115620004df57620004de6200043d565b5b620004ea826200042c565b9050602081019050919050565b60005b8381101562000517578082015181840152602081019050620004fa565b8381111562000527576000848401525b50505050565b6000620005446200053e84620004c1565b620004a2565b90508281526020810184848401111562000563576200056262000427565b5b62000570848285620004f7565b509392505050565b600082601f83011262000590576200058f62000422565b5b8151620005a28482602086016200052d565b91505092915050565b6000819050919050565b620005c081620005ab565b8114620005cc57600080fd5b50565b600081519050620005e081620005b5565b92915050565b600080600080600080600060e0888a03121562000608576200060762000418565b5b600088015167ffffffffffffffff8111156200062957620006286200041d565b5b620006378a828b0162000578565b975050602088015167ffffffffffffffff8111156200065b576200065a6200041d565b5b620006698a828b0162000578565b96505060406200067c8a828b01620005cf565b95505060606200068f8a828b01620005cf565b9450506080620006a28a828b01620005cf565b93505060a088015167ffffffffffffffff811115620006c657620006c56200041d565b5b620006d48a828b0162000578565b92505060c088015167ffffffffffffffff811115620006f857620006f76200041d565b5b620007068a828b0162000578565b91505092959891949750929550565b7f4e487b7100000000000000000000000000000000000000000000000000000000600052601160045260246000fd5b60006200075182620005ab565b91506200075e83620005ab565b92508282101562000774576200077362000715565b5b828203905092915050565b600082825260208201905092915050565b7f4f776e61626c653a2063616c6c6572206973206e6f7420746865206f776e6572600082015250565b6000620007c86020836200077f565b9150620007d58262000790565b602082019050919050565b60006020820190508181036000830152620007fb81620007b9565b9050919050565b7f4e487b7100000000000000000000000000000000000000000000000000000000600052602260045260246000fd5b600060028204905060018216806200084a57607f821691505b6020821081141562000861576200086062000802565b5b50919050565b6140f980620008776000396000f3fe6080604052600436106102305760003560e01c806355f804b31161012e578063a75052cb116100ab578063d5abeb011161006f578063d5abeb0114610823578063da3ef23f1461084e578063e985e9c514610877578063f2c4ce1e146108b4578063f2fde38b146108dd57610230565b8063a75052cb1461073c578063b187bd2614610767578063b88d4fde14610792578063c6682862146107bb578063c87b56dd146107e657610230565b8063872bdcdb116100f2578063872bdcdb146106765780638da5cb5b146106a157806395d89b41146106cc578063a0712d68146106f7578063a22cb4651461071357610230565b806355f804b3146105935780636352211e146105bc57806370a08231146105f9578063715018a6146106365780637f00c7a61461064d57610230565b806323b872dd116101bc578063438b630011610180578063438b63001461049c57806344a0d68a146104d957806349a5980a146105025780634f6ccce71461052b57806354214f691461056857610230565b806323b872dd146103da578063240976bf146104035780632f745c591461042c5780633ccfd60b1461046957806342842e0e1461047357610230565b8063095ea7b311610203578063095ea7b31461030557806313faede61461032e57806318160ddd1461035957806319188c3514610384578063239c70ae146103af57610230565b806301ffc9a71461023557806306fdde0314610272578063081812fc1461029d578063081c8c44146102da575b600080fd5b34801561024157600080fd5b5061025c60048036038101906102579190612b65565b610906565b6040516102699190612bad565b60405180910390f35b34801561027e57600080fd5b50610287610980565b6040516102949190612c61565b60405180910390f35b3480156102a957600080fd5b506102c460048036038101906102bf9190612cb9565b610a12565b6040516102d19190612d27565b60405180910390f35b3480156102e657600080fd5b506102ef610a58565b6040516102fc9190612c61565b60405180910390f35b34801561031157600080fd5b5061032c60048036038101906103279190612d6e565b610ae6565b005b34801561033a57600080fd5b50610343610bfe565b6040516103509190612dbd565b60405180910390f35b34801561036557600080fd5b5061036e610c04565b60405161037b9190612dbd565b60405180910390f35b34801561039057600080fd5b50610399610c11565b6040516103a69190612dbd565b60405180910390f35b3480156103bb57600080fd5b506103c4610c17565b6040516103d19190612dbd565b60405180910390f35b3480156103e657600080fd5b5061040160048036038101906103fc9190612dd8565b610c1d565b005b34801561040f57600080fd5b5061042a60048036038101906104259190612e57565b610c7d565b005b34801561043857600080fd5b50610453600480360381019061044e9190612d6e565b610ca2565b6040516104609190612dbd565b60405180910390f35b610471610d47565b005b34801561047f57600080fd5b5061049a60048036038101906104959190612dd8565b610dc8565b005b3480156104a857600080fd5b506104c360048036038101906104be9190612e84565b610de8565b6040516104d09190612f6f565b60405180910390f35b3480156104e557600080fd5b5061050060048036038101906104fb9190612cb9565b610e96565b005b34801561050e57600080fd5b5061052960048036038101906105249190612e57565b610ea8565b005b34801561053757600080fd5b50610552600480360381019061054d9190612cb9565b610ecd565b60405161055f9190612dbd565b60405180910390f35b34801561057457600080fd5b5061057d610f3e565b60405161058a9190612bad565b60405180910390f35b34801561059f57600080fd5b506105ba60048036038101906105b591906130c6565b610f51565b005b3480156105c857600080fd5b506105e360048036038101906105de9190612cb9565b610f73565b6040516105f09190612d27565b60405180910390f35b34801561060557600080fd5b50610620600480360381019061061b9190612e84565b611025565b60405161062d9190612dbd565b60405180910390f35b34801561064257600080fd5b5061064b6110dd565b005b34801561065957600080fd5b50610674600480360381019061066f9190612cb9565b6110f1565b005b34801561068257600080fd5b5061068b611103565b6040516106989190612dbd565b60405180910390f35b3480156106ad57600080fd5b506106b6611109565b6040516106c39190612d27565b60405180910390f35b3480156106d857600080fd5b506106e1611133565b6040516106ee9190612c61565b60405180910390f35b610711600480360381019061070c9190612cb9565b6111c5565b005b34801561071f57600080fd5b5061073a6004803603810190610735919061310f565b61134e565b005b34801561074857600080fd5b50610751611364565b60405161075e9190612dbd565b60405180910390f35b34801561077357600080fd5b5061077c6113a7565b6040516107899190612bad565b60405180910390f35b34801561079e57600080fd5b506107b960048036038101906107b491906131f0565b6113ba565b005b3480156107c757600080fd5b506107d061141c565b6040516107dd9190612c61565b60405180910390f35b3480156107f257600080fd5b5061080d60048036038101906108089190612cb9565b6114aa565b60405161081a9190612c61565b60405180910390f35b34801561082f57600080fd5b50610838611603565b6040516108459190612dbd565b60405180910390f35b34801561085a57600080fd5b50610875600480360381019061087091906130c6565b611609565b005b34801561088357600080fd5b5061089e60048036038101906108999190613273565b61162b565b6040516108ab9190612bad565b60405180910390f35b3480156108c057600080fd5b506108db60048036038101906108d691906130c6565b6116bf565b005b3480156108e957600080fd5b5061090460048036038101906108ff9190612e84565b6116e1565b005b60007f780e9d63000000000000000000000000000000000000000000000000000000007bffffffffffffffffffffffffffffffffffffffffffffffffffffffff1916827bffffffffffffffffffffffffffffffffffffffffffffffffffffffff19161480610979575061097882611765565b5b9050919050565b60606000805461098f906132e2565b80601f01602080910402602001604051908101604052809291908181526020018280546109bb906132e2565b8015610a085780601f106109dd57610100808354040283529160200191610a08565b820191906000526020600020905b8154815290600101906020018083116109eb57829003601f168201915b5050505050905090565b6000610a1d82611847565b6004600083815260200190815260200160002060009054906101000a900473ffffffffffffffffffffffffffffffffffffffff169050919050565b60138054610a65906132e2565b80601f0160208091040260200160405190810160405280929190818152602001828054610a91906132e2565b8015610ade5780601f10610ab357610100808354040283529160200191610ade565b820191906000526020600020905b815481529060010190602001808311610ac157829003601f168201915b505050505081565b6000610af182610f73565b90508073ffffffffffffffffffffffffffffffffffffffff168373ffffffffffffffffffffffffffffffffffffffff161415610b62576040517f08c379a0000000000000000000000000000000000000000000000000000000008152600401610b5990613386565b60405180910390fd5b8073ffffffffffffffffffffffffffffffffffffffff16610b81611892565b73ffffffffffffffffffffffffffffffffffffffff161480610bb05750610baf81610baa611892565b61162b565b5b610bef576040517f08c379a0000000000000000000000000000000000000000000000000000000008152600401610be690613418565b60405180910390fd5b610bf9838361189a565b505050565b600d5481565b6000600880549050905090565b60105481565b600f5481565b610c2e610c28611892565b82611953565b610c6d576040517f08c379a0000000000000000000000000000000000000000000000000000000008152600401610c64906134aa565b60405180910390fd5b610c788383836119e8565b505050565b610c85611c4f565b80601260006101000a81548160ff02191690831515021790555050565b6000610cad83611025565b8210610cee576040517f08c379a0000000000000000000000000000000000000000000000000000000008152600401610ce59061353c565b60405180910390fd5b600660008473ffffffffffffffffffffffffffffffffffffffff1673ffffffffffffffffffffffffffffffffffffffff168152602001908152602001600020600083815260200190815260200160002054905092915050565b610d4f611c4f565b60003373ffffffffffffffffffffffffffffffffffffffff1647604051610d759061358d565b60006040518083038185875af1925050503d8060008114610db2576040519150601f19603f3d011682016040523d82523d6000602084013e610db7565b606091505b5050905080610dc557600080fd5b50565b610de3838383604051806020016040528060008152506113ba565b505050565b60606000610df583611025565b905060008167ffffffffffffffff811115610e1357610e12612f9b565b5b604051908082528060200260200182016040528015610e415781602001602082028036833780820191505090505b50905060005b82811015610e8b57610e598582610ca2565b828281518110610e6c57610e6b6135a2565b5b6020026020010181815250508080610e8390613600565b915050610e47565b508092505050919050565b610e9e611c4f565b80600d8190555050565b610eb0611c4f565b80601260016101000a81548160ff02191690831515021790555050565b6000610ed7610c04565b8210610f18576040517f08c379a0000000000000000000000000000000000000000000000000000000008152600401610f0f906136bb565b60405180910390fd5b60088281548110610f2c57610f2b6135a2565b5b90600052602060002001549050919050565b601260019054906101000a900460ff1681565b610f59611c4f565b80600b9080519060200190610f6f929190612a56565b5050565b6000806002600084815260200190815260200160002060009054906101000a900473ffffffffffffffffffffffffffffffffffffffff169050600073ffffffffffffffffffffffffffffffffffffffff168173ffffffffffffffffffffffffffffffffffffffff16141561101c576040517f08c379a000000000000000000000000000000000000000000000000000000000815260040161101390613727565b60405180910390fd5b80915050919050565b60008073ffffffffffffffffffffffffffffffffffffffff168273ffffffffffffffffffffffffffffffffffffffff161415611096576040517f08c379a000000000000000000000000000000000000000000000000000000000815260040161108d906137b9565b60405180910390fd5b600360008373ffffffffffffffffffffffffffffffffffffffff1673ffffffffffffffffffffffffffffffffffffffff168152602001908152602001600020549050919050565b6110e5611c4f565b6110ef6000611ccd565b565b6110f9611c4f565b80600f8190555050565b60115481565b6000600a60009054906101000a900473ffffffffffffffffffffffffffffffffffffffff16905090565b606060018054611142906132e2565b80601f016020809104026020016040519081016040528092919081815260200182805461116e906132e2565b80156111bb5780601f10611190576101008083540402835291602001916111bb565b820191906000526020600020905b81548152906001019060200180831161119e57829003601f168201915b5050505050905090565b6011546010546111d591906137d9565b421015611217576040517f08c379a000000000000000000000000000000000000000000000000000000000815260040161120e9061387b565b60405180910390fd5b600061122233611025565b14611262576040517f08c379a0000000000000000000000000000000000000000000000000000000008152600401611259906138e7565b60405180910390fd5b600061126c610c04565b9050601260009054906101000a900460ff161561128857600080fd5b6000821161129557600080fd5b600f548211156112a457600080fd5b600e5482826112b391906137d9565b11156112be57600080fd5b6112c6611109565b73ffffffffffffffffffffffffffffffffffffffff163373ffffffffffffffffffffffffffffffffffffffff16146113135781600d546113069190613907565b34101561131257600080fd5b5b6000600190505b8281116113495761133633828461133191906137d9565b611d93565b808061134190613600565b91505061131a565b505050565b611360611359611892565b8383611db1565b5050565b600060115460105461137691906137d9565b42101561139f574260115460105461138e91906137d9565b6113989190613961565b90506113a4565b600090505b90565b601260009054906101000a900460ff1681565b6113cb6113c5611892565b83611953565b61140a576040517f08c379a0000000000000000000000000000000000000000000000000000000008152600401611401906134aa565b60405180910390fd5b61141684848484611f1e565b50505050565b600c8054611429906132e2565b80601f0160208091040260200160405190810160405280929190818152602001828054611455906132e2565b80156114a25780601f10611477576101008083540402835291602001916114a2565b820191906000526020600020905b81548152906001019060200180831161148557829003601f168201915b505050505081565b60606114b582611f7a565b6114f4576040517f08c379a00000000000000000000000000000000000000000000000000000000081526004016114eb90613a07565b60405180910390fd5b60001515601260019054906101000a900460ff16151514156115a2576013805461151d906132e2565b80601f0160208091040260200160405190810160405280929190818152602001828054611549906132e2565b80156115965780601f1061156b57610100808354040283529160200191611596565b820191906000526020600020905b81548152906001019060200180831161157957829003601f168201915b505050505090506115fe565b60006115ac611fe6565b905060008151116115cc57604051806020016040528060008152506115fa565b806115d684612078565b600c6040516020016115ea93929190613af7565b6040516020818303038152906040525b9150505b919050565b600e5481565b611611611c4f565b80600c9080519060200190611627929190612a56565b5050565b6000600560008473ffffffffffffffffffffffffffffffffffffffff1673ffffffffffffffffffffffffffffffffffffffff16815260200190815260200160002060008373ffffffffffffffffffffffffffffffffffffffff1673ffffffffffffffffffffffffffffffffffffffff16815260200190815260200160002060009054906101000a900460ff16905092915050565b6116c7611c4f565b80601390805190602001906116dd929190612a56565b5050565b6116e9611c4f565b600073ffffffffffffffffffffffffffffffffffffffff168173ffffffffffffffffffffffffffffffffffffffff161415611759576040517f08c379a000000000000000000000000000000000000000000000000000000000815260040161175090613b9a565b60405180910390fd5b61176281611ccd565b50565b60007f80ac58cd000000000000000000000000000000000000000000000000000000007bffffffffffffffffffffffffffffffffffffffffffffffffffffffff1916827bffffffffffffffffffffffffffffffffffffffffffffffffffffffff1916148061183057507f5b5e139f000000000000000000000000000000000000000000000000000000007bffffffffffffffffffffffffffffffffffffffffffffffffffffffff1916827bffffffffffffffffffffffffffffffffffffffffffffffffffffffff1916145b80611840575061183f826121d9565b5b9050919050565b61185081611f7a565b61188f576040517f08c379a000000000000000000000000000000000000000000000000000000000815260040161188690613727565b60405180910390fd5b50565b600033905090565b816004600083815260200190815260200160002060006101000a81548173ffffffffffffffffffffffffffffffffffffffff021916908373ffffffffffffffffffffffffffffffffffffffff160217905550808273ffffffffffffffffffffffffffffffffffffffff1661190d83610f73565b73ffffffffffffffffffffffffffffffffffffffff167f8c5be1e5ebec7d5bd14f71427d1e84f3dd0314c0f7b2291e5b200ac8c7c3b92560405160405180910390a45050565b60008061195f83610f73565b90508073ffffffffffffffffffffffffffffffffffffffff168473ffffffffffffffffffffffffffffffffffffffff1614806119a157506119a0818561162b565b5b806119df57508373ffffffffffffffffffffffffffffffffffffffff166119c784610a12565b73ffffffffffffffffffffffffffffffffffffffff16145b91505092915050565b8273ffffffffffffffffffffffffffffffffffffffff16611a0882610f73565b73ffffffffffffffffffffffffffffffffffffffff1614611a5e576040517f08c379a0000000000000000000000000000000000000000000000000000000008152600401611a5590613c2c565b60405180910390fd5b600073ffffffffffffffffffffffffffffffffffffffff168273ffffffffffffffffffffffffffffffffffffffff161415611ace576040517f08c379a0000000000000000000000000000000000000000000000000000000008152600401611ac590613cbe565b60405180910390fd5b611ad9838383612243565b611ae460008261189a565b6001600360008573ffffffffffffffffffffffffffffffffffffffff1673ffffffffffffffffffffffffffffffffffffffff1681526020019081526020016000206000828254611b349190613961565b925050819055506001600360008473ffffffffffffffffffffffffffffffffffffffff1673ffffffffffffffffffffffffffffffffffffffff1681526020019081526020016000206000828254611b8b91906137d9565b92505081905550816002600083815260200190815260200160002060006101000a81548173ffffffffffffffffffffffffffffffffffffffff021916908373ffffffffffffffffffffffffffffffffffffffff160217905550808273ffffffffffffffffffffffffffffffffffffffff168473ffffffffffffffffffffffffffffffffffffffff167fddf252ad1be2c89b69c2b068fc378daa952ba7f163c4a11628f55a4df523b3ef60405160405180910390a4611c4a838383612357565b505050565b611c57611892565b73ffffffffffffffffffffffffffffffffffffffff16611c75611109565b73ffffffffffffffffffffffffffffffffffffffff1614611ccb576040517f08c379a0000000000000000000000000000000000000000000000000000000008152600401611cc290613d2a565b60405180910390fd5b565b6000600a60009054906101000a900473ffffffffffffffffffffffffffffffffffffffff16905081600a60006101000a81548173ffffffffffffffffffffffffffffffffffffffff021916908373ffffffffffffffffffffffffffffffffffffffff1602179055508173ffffffffffffffffffffffffffffffffffffffff168173ffffffffffffffffffffffffffffffffffffffff167f8be0079c531659141344cd1fd0a4f28419497f9722a3daafe3b4186f6b6457e060405160405180910390a35050565b611dad82826040518060200160405280600081525061235c565b5050565b8173ffffffffffffffffffffffffffffffffffffffff168373ffffffffffffffffffffffffffffffffffffffff161415611e20576040517f08c379a0000000000000000000000000000000000000000000000000000000008152600401611e1790613d96565b60405180910390fd5b80600560008573ffffffffffffffffffffffffffffffffffffffff1673ffffffffffffffffffffffffffffffffffffffff16815260200190815260200160002060008473ffffffffffffffffffffffffffffffffffffffff1673ffffffffffffffffffffffffffffffffffffffff16815260200190815260200160002060006101000a81548160ff0219169083151502179055508173ffffffffffffffffffffffffffffffffffffffff168373ffffffffffffffffffffffffffffffffffffffff167f17307eab39ab6107e8899845ad3d59bd9653f200f220920489ca2b5937696c3183604051611f119190612bad565b60405180910390a3505050565b611f298484846119e8565b611f35848484846123b7565b611f74576040517f08c379a0000000000000000000000000000000000000000000000000000000008152600401611f6b90613e28565b60405180910390fd5b50505050565b60008073ffffffffffffffffffffffffffffffffffffffff166002600084815260200190815260200160002060009054906101000a900473ffffffffffffffffffffffffffffffffffffffff1673ffffffffffffffffffffffffffffffffffffffff1614159050919050565b6060600b8054611ff5906132e2565b80601f0160208091040260200160405190810160405280929190818152602001828054612021906132e2565b801561206e5780601f106120435761010080835404028352916020019161206e565b820191906000526020600020905b81548152906001019060200180831161205157829003601f168201915b5050505050905090565b606060008214156120c0576040518060400160405280600181526020017f300000000000000000000000000000000000000000000000000000000000000081525090506121d4565b600082905060005b600082146120f25780806120db90613600565b915050600a826120eb9190613e77565b91506120c8565b60008167ffffffffffffffff81111561210e5761210d612f9b565b5b6040519080825280601f01601f1916602001820160405280156121405781602001600182028036833780820191505090505b5090505b600085146121cd576001826121599190613961565b9150600a856121689190613ea8565b603061217491906137d9565b60f81b81838151811061218a576121896135a2565b5b60200101907effffffffffffffffffffffffffffffffffffffffffffffffffffffffffffff1916908160001a905350600a856121c69190613e77565b9450612144565b8093505050505b919050565b60007f01ffc9a7000000000000000000000000000000000000000000000000000000007bffffffffffffffffffffffffffffffffffffffffffffffffffffffff1916827bffffffffffffffffffffffffffffffffffffffffffffffffffffffff1916149050919050565b61224e83838361254e565b600073ffffffffffffffffffffffffffffffffffffffff168373ffffffffffffffffffffffffffffffffffffffff1614156122915761228c81612553565b6122d0565b8173ffffffffffffffffffffffffffffffffffffffff168373ffffffffffffffffffffffffffffffffffffffff16146122cf576122ce838261259c565b5b5b600073ffffffffffffffffffffffffffffffffffffffff168273ffffffffffffffffffffffffffffffffffffffff1614156123135761230e81612709565b612352565b8273ffffffffffffffffffffffffffffffffffffffff168273ffffffffffffffffffffffffffffffffffffffff16146123515761235082826127da565b5b5b505050565b505050565b6123668383612859565b61237360008484846123b7565b6123b2576040517f08c379a00000000000000000000000000000000000000000000000000000000081526004016123a990613e28565b60405180910390fd5b505050565b60006123d88473ffffffffffffffffffffffffffffffffffffffff16612a33565b15612541578373ffffffffffffffffffffffffffffffffffffffff1663150b7a02612401611892565b8786866040518563ffffffff1660e01b81526004016124239493929190613f2e565b602060405180830381600087803b15801561243d57600080fd5b505af192505050801561246e57506040513d601f19601f8201168201806040525081019061246b9190613f8f565b60015b6124f1573d806000811461249e576040519150601f19603f3d011682016040523d82523d6000602084013e6124a3565b606091505b506000815114156124e9576040517f08c379a00000000000000000000000000000000000000000000000000000000081526004016124e090613e28565b60405180910390fd5b805181602001fd5b63150b7a0260e01b7bffffffffffffffffffffffffffffffffffffffffffffffffffffffff1916817bffffffffffffffffffffffffffffffffffffffffffffffffffffffff191614915050612546565b600190505b949350505050565b505050565b6008805490506009600083815260200190815260200160002081905550600881908060018154018082558091505060019003906000526020600020016000909190919091505550565b600060016125a984611025565b6125b39190613961565b9050600060076000848152602001908152602001600020549050818114612698576000600660008673ffffffffffffffffffffffffffffffffffffffff1673ffffffffffffffffffffffffffffffffffffffff168152602001908152602001600020600084815260200190815260200160002054905080600660008773ffffffffffffffffffffffffffffffffffffffff1673ffffffffffffffffffffffffffffffffffffffff168152602001908152602001600020600084815260200190815260200160002081905550816007600083815260200190815260200160002081905550505b6007600084815260200190815260200160002060009055600660008573ffffffffffffffffffffffffffffffffffffffff1673ffffffffffffffffffffffffffffffffffffffff16815260200190815260200160002060008381526020019081526020016000206000905550505050565b6000600160088054905061271d9190613961565b905060006009600084815260200190815260200160002054905060006008838154811061274d5761274c6135a2565b5b90600052602060002001549050806008838154811061276f5761276e6135a2565b5b9060005260206000200181905550816009600083815260200190815260200160002081905550600960008581526020019081526020016000206000905560088054806127be576127bd613fbc565b5b6001900381819060005260206000200160009055905550505050565b60006127e583611025565b905081600660008573ffffffffffffffffffffffffffffffffffffffff1673ffffffffffffffffffffffffffffffffffffffff168152602001908152602001600020600083815260200190815260200160002081905550806007600084815260200190815260200160002081905550505050565b600073ffffffffffffffffffffffffffffffffffffffff168273ffffffffffffffffffffffffffffffffffffffff1614156128c9576040517f08c379a00000000000000000000000000000000000000000000000000000000081526004016128c090614037565b60405180910390fd5b6128d281611f7a565b15612912576040517f08c379a0000000000000000000000000000000000000000000000000000000008152600401612909906140a3565b60405180910390fd5b61291e60008383612243565b6001600360008473ffffffffffffffffffffffffffffffffffffffff1673ffffffffffffffffffffffffffffffffffffffff168152602001908152602001600020600082825461296e91906137d9565b92505081905550816002600083815260200190815260200160002060006101000a81548173ffffffffffffffffffffffffffffffffffffffff021916908373ffffffffffffffffffffffffffffffffffffffff160217905550808273ffffffffffffffffffffffffffffffffffffffff16600073ffffffffffffffffffffffffffffffffffffffff167fddf252ad1be2c89b69c2b068fc378daa952ba7f163c4a11628f55a4df523b3ef60405160405180910390a4612a2f60008383612357565b5050565b6000808273ffffffffffffffffffffffffffffffffffffffff163b119050919050565b828054612a62906132e2565b90600052602060002090601f016020900481019282612a845760008555612acb565b82601f10612a9d57805160ff1916838001178555612acb565b82800160010185558215612acb579182015b82811115612aca578251825591602001919060010190612aaf565b5b509050612ad89190612adc565b5090565b5b80821115612af5576000816000905550600101612add565b5090565b6000604051905090565b600080fd5b600080fd5b60007fffffffff0000000000000000000000000000000000000000000000000000000082169050919050565b612b4281612b0d565b8114612b4d57600080fd5b50565b600081359050612b5f81612b39565b92915050565b600060208284031215612b7b57612b7a612b03565b5b6000612b8984828501612b50565b91505092915050565b60008115159050919050565b612ba781612b92565b82525050565b6000602082019050612bc26000830184612b9e565b92915050565b600081519050919050565b600082825260208201905092915050565b60005b83811015612c02578082015181840152602081019050612be7565b83811115612c11576000848401525b50505050565b6000601f19601f8301169050919050565b6000612c3382612bc8565b612c3d8185612bd3565b9350612c4d818560208601612be4565b612c5681612c17565b840191505092915050565b60006020820190508181036000830152612c7b8184612c28565b905092915050565b6000819050919050565b612c9681612c83565b8114612ca157600080fd5b50565b600081359050612cb381612c8d565b92915050565b600060208284031215612ccf57612cce612b03565b5b6000612cdd84828501612ca4565b91505092915050565b600073ffffffffffffffffffffffffffffffffffffffff82169050919050565b6000612d1182612ce6565b9050919050565b612d2181612d06565b82525050565b6000602082019050612d3c6000830184612d18565b92915050565b612d4b81612d06565b8114612d5657600080fd5b50565b600081359050612d6881612d42565b92915050565b60008060408385031215612d8557612d84612b03565b5b6000612d9385828601612d59565b9250506020612da485828601612ca4565b9150509250929050565b612db781612c83565b82525050565b6000602082019050612dd26000830184612dae565b92915050565b600080600060608486031215612df157612df0612b03565b5b6000612dff86828701612d59565b9350506020612e1086828701612d59565b9250506040612e2186828701612ca4565b9150509250925092565b612e3481612b92565b8114612e3f57600080fd5b50565b600081359050612e5181612e2b565b92915050565b600060208284031215612e6d57612e6c612b03565b5b6000612e7b84828501612e42565b91505092915050565b600060208284031215612e9a57612e99612b03565b5b6000612ea884828501612d59565b91505092915050565b600081519050919050565b600082825260208201905092915050565b6000819050602082019050919050565b612ee681612c83565b82525050565b6000612ef88383612edd565b60208301905092915050565b6000602082019050919050565b6000612f1c82612eb1565b612f268185612ebc565b9350612f3183612ecd565b8060005b83811015612f62578151612f498882612eec565b9750612f5483612f04565b925050600181019050612f35565b5085935050505092915050565b60006020820190508181036000830152612f898184612f11565b905092915050565b600080fd5b600080fd5b7f4e487b7100000000000000000000000000000000000000000000000000000000600052604160045260246000fd5b612fd382612c17565b810181811067ffffffffffffffff82111715612ff257612ff1612f9b565b5b80604052505050565b6000613005612af9565b90506130118282612fca565b919050565b600067ffffffffffffffff82111561303157613030612f9b565b5b61303a82612c17565b9050602081019050919050565b82818337600083830152505050565b600061306961306484613016565b612ffb565b90508281526020810184848401111561308557613084612f96565b5b613090848285613047565b509392505050565b600082601f8301126130ad576130ac612f91565b5b81356130bd848260208601613056565b91505092915050565b6000602082840312156130dc576130db612b03565b5b600082013567ffffffffffffffff8111156130fa576130f9612b08565b5b61310684828501613098565b91505092915050565b6000806040838503121561312657613125612b03565b5b600061313485828601612d59565b925050602061314585828601612e42565b9150509250929050565b600067ffffffffffffffff82111561316a57613169612f9b565b5b61317382612c17565b9050602081019050919050565b600061319361318e8461314f565b612ffb565b9050828152602081018484840111156131af576131ae612f96565b5b6131ba848285613047565b509392505050565b600082601f8301126131d7576131d6612f91565b5b81356131e7848260208601613180565b91505092915050565b6000806000806080858703121561320a57613209612b03565b5b600061321887828801612d59565b945050602061322987828801612d59565b935050604061323a87828801612ca4565b925050606085013567ffffffffffffffff81111561325b5761325a612b08565b5b613267878288016131c2565b91505092959194509250565b6000806040838503121561328a57613289612b03565b5b600061329885828601612d59565b92505060206132a985828601612d59565b9150509250929050565b7f4e487b7100000000000000000000000000000000000000000000000000000000600052602260045260246000fd5b600060028204905060018216806132fa57607f821691505b6020821081141561330e5761330d6132b3565b5b50919050565b7f4552433732313a20617070726f76616c20746f2063757272656e74206f776e6560008201527f7200000000000000000000000000000000000000000000000000000000000000602082015250565b6000613370602183612bd3565b915061337b82613314565b604082019050919050565b6000602082019050818103600083015261339f81613363565b9050919050565b7f4552433732313a20617070726f76652063616c6c6572206973206e6f7420746f60008201527f6b656e206f776e6572206e6f7220617070726f76656420666f7220616c6c0000602082015250565b6000613402603e83612bd3565b915061340d826133a6565b604082019050919050565b60006020820190508181036000830152613431816133f5565b9050919050565b7f4552433732313a2063616c6c6572206973206e6f7420746f6b656e206f776e6560008201527f72206e6f7220617070726f766564000000000000000000000000000000000000602082015250565b6000613494602e83612bd3565b915061349f82613438565b604082019050919050565b600060208201905081810360008301526134c381613487565b9050919050565b7f455243373231456e756d657261626c653a206f776e657220696e646578206f7560008201527f74206f6620626f756e6473000000000000000000000000000000000000000000602082015250565b6000613526602b83612bd3565b9150613531826134ca565b604082019050919050565b6000602082019050818103600083015261355581613519565b9050919050565b600081905092915050565b50565b600061357760008361355c565b915061358282613567565b600082019050919050565b60006135988261356a565b9150819050919050565b7f4e487b7100000000000000000000000000000000000000000000000000000000600052603260045260246000fd5b7f4e487b7100000000000000000000000000000000000000000000000000000000600052601160045260246000fd5b600061360b82612c83565b91507fffffffffffffffffffffffffffffffffffffffffffffffffffffffffffffffff82141561363e5761363d6135d1565b5b600182019050919050565b7f455243373231456e756d657261626c653a20676c6f62616c20696e646578206f60008201527f7574206f6620626f756e64730000000000000000000000000000000000000000602082015250565b60006136a5602c83612bd3565b91506136b082613649565b604082019050919050565b600060208201905081810360008301526136d481613698565b9050919050565b7f4552433732313a20696e76616c696420746f6b656e2049440000000000000000600082015250565b6000613711601883612bd3565b915061371c826136db565b602082019050919050565b6000602082019050818103600083015261374081613704565b9050919050565b7f4552433732313a2061646472657373207a65726f206973206e6f74206120766160008201527f6c6964206f776e65720000000000000000000000000000000000000000000000602082015250565b60006137a3602983612bd3565b91506137ae82613747565b604082019050919050565b600060208201905081810360008301526137d281613796565b9050919050565b60006137e482612c83565b91506137ef83612c83565b9250827fffffffffffffffffffffffffffffffffffffffffffffffffffffffffffffffff03821115613824576138236135d1565b5b828201905092915050565b7f4d696e74696e67206e6f7720616c6c6f77656420796574000000000000000000600082015250565b6000613865601783612bd3565b91506138708261382f565b602082019050919050565b6000602082019050818103600083015261389481613858565b9050919050565b7f4f6e6c792031206d696e7420706572206163636f756e74000000000000000000600082015250565b60006138d1601783612bd3565b91506138dc8261389b565b602082019050919050565b60006020820190508181036000830152613900816138c4565b9050919050565b600061391282612c83565b915061391d83612c83565b9250817fffffffffffffffffffffffffffffffffffffffffffffffffffffffffffffffff0483118215151615613956576139556135d1565b5b828202905092915050565b600061396c82612c83565b915061397783612c83565b92508282101561398a576139896135d1565b5b828203905092915050565b7f4552433732314d657461646174613a2055524920717565727920666f72206e6f60008201527f6e6578697374656e7420746f6b656e0000000000000000000000000000000000602082015250565b60006139f1602f83612bd3565b91506139fc82613995565b604082019050919050565b60006020820190508181036000830152613a20816139e4565b9050919050565b600081905092915050565b6000613a3d82612bc8565b613a478185613a27565b9350613a57818560208601612be4565b80840191505092915050565b60008190508160005260206000209050919050565b60008154613a85816132e2565b613a8f8186613a27565b94506001821660008114613aaa5760018114613abb57613aee565b60ff19831686528186019350613aee565b613ac485613a63565b60005b83811015613ae657815481890152600182019150602081019050613ac7565b838801955050505b50505092915050565b6000613b038286613a32565b9150613b0f8285613a32565b9150613b1b8284613a78565b9150819050949350505050565b7f4f776e61626c653a206e6577206f776e657220697320746865207a65726f206160008201527f6464726573730000000000000000000000000000000000000000000000000000602082015250565b6000613b84602683612bd3565b9150613b8f82613b28565b604082019050919050565b60006020820190508181036000830152613bb381613b77565b9050919050565b7f4552433732313a207472616e736665722066726f6d20696e636f72726563742060008201527f6f776e6572000000000000000000000000000000000000000000000000000000602082015250565b6000613c16602583612bd3565b9150613c2182613bba565b604082019050919050565b60006020820190508181036000830152613c4581613c09565b9050919050565b7f4552433732313a207472616e7366657220746f20746865207a65726f2061646460008201527f7265737300000000000000000000000000000000000000000000000000000000602082015250565b6000613ca8602483612bd3565b9150613cb382613c4c565b604082019050919050565b60006020820190508181036000830152613cd781613c9b565b9050919050565b7f4f776e61626c653a2063616c6c6572206973206e6f7420746865206f776e6572600082015250565b6000613d14602083612bd3565b9150613d1f82613cde565b602082019050919050565b60006020820190508181036000830152613d4381613d07565b9050919050565b7f4552433732313a20617070726f766520746f2063616c6c657200000000000000600082015250565b6000613d80601983612bd3565b9150613d8b82613d4a565b602082019050919050565b60006020820190508181036000830152613daf81613d73565b9050919050565b7f4552433732313a207472616e7366657220746f206e6f6e20455243373231526560008201527f63656976657220696d706c656d656e7465720000000000000000000000000000602082015250565b6000613e12603283612bd3565b9150613e1d82613db6565b604082019050919050565b60006020820190508181036000830152613e4181613e05565b9050919050565b7f4e487b7100000000000000000000000000000000000000000000000000000000600052601260045260246000fd5b6000613e8282612c83565b9150613e8d83612c83565b925082613e9d57613e9c613e48565b5b828204905092915050565b6000613eb382612c83565b9150613ebe83612c83565b925082613ece57613ecd613e48565b5b828206905092915050565b600081519050919050565b600082825260208201905092915050565b6000613f0082613ed9565b613f0a8185613ee4565b9350613f1a818560208601612be4565b613f2381612c17565b840191505092915050565b6000608082019050613f436000830187612d18565b613f506020830186612d18565b613f5d6040830185612dae565b8181036060830152613f6f8184613ef5565b905095945050505050565b600081519050613f8981612b39565b92915050565b600060208284031215613fa557613fa4612b03565b5b6000613fb384828501613f7a565b91505092915050565b7f4e487b7100000000000000000000000000000000000000000000000000000000600052603160045260246000fd5b7f4552433732313a206d696e7420746f20746865207a65726f2061646472657373600082015250565b6000614021602083612bd3565b915061402c82613feb565b602082019050919050565b6000602082019050818103600083015261405081614014565b9050919050565b7f4552433732313a20746f6b656e20616c7265616479206d696e74656400000000600082015250565b600061408d601c83612bd3565b915061409882614057565b602082019050919050565b600060208201905081810360008301526140bc81614080565b905091905056fea2646970667358221220c62b1ce224563a7c1e6ab7354a2db9007d48505473e007120a06578afc98c82e64736f6c63430008090033",
  "immutableReferences": {},
  "source": "// SPDX-License-Identifier: MIT\npragma solidity ^0.8.0;\n\nimport \"@openzeppelin/contracts/utils/introspection/IERC165.sol\";\nimport \"@openzeppelin/contracts/token/ERC721/IERC721.sol\";\nimport \"@openzeppelin/contracts/token/ERC721/extensions/IERC721Enumerable.sol\";\nimport \"@openzeppelin/contracts/utils/introspection/ERC165.sol\";\nimport \"@openzeppelin/contracts/utils/Strings.sol\";\nimport \"@openzeppelin/contracts/utils/Address.sol\";\nimport \"@openzeppelin/contracts/token/ERC721/extensions/IERC721Metadata.sol\";\nimport \"@openzeppelin/contracts/token/ERC721/IERC721Receiver.sol\";\nimport \"@openzeppelin/contracts/utils/Context.sol\";\nimport \"@openzeppelin/contracts/token/ERC721/ERC721.sol\";\nimport \"@openzeppelin/contracts/token/ERC721/extensions/ERC721Enumerable.sol\";\nimport \"@openzeppelin/contracts/access/Ownable.sol\";\n\ncontract OpenPunks is ERC721Enumerable, Ownable {\n    using Strings for uint256;\n\n    string baseURI;\n    string public baseExtension = \".json\";\n    uint256 public cost;\n    uint256 public maxSupply;\n    uint256 public maxMintAmount = 1;\n    uint256 public timeDeployed;\n    uint256 public allowMintingAfter = 0;\n    bool public isPaused = false;\n    bool public isRevealed = true;\n    string public notRevealedUri;\n\n    constructor(\n        string memory _name,\n        string memory _symbol,\n        uint256 _cost,\n        uint256 _maxSupply,\n        uint256 _allowMintingOn,\n        string memory _initBaseURI,\n        string memory _initNotRevealedUri\n    ) ERC721(_name, _symbol) {\n        if (_allowMintingOn > block.timestamp) {\n            allowMintingAfter = _allowMintingOn - block.timestamp;\n        }\n\n        cost = _cost;\n        maxSupply = _maxSupply;\n        timeDeployed = block.timestamp;\n\n        setBaseURI(_initBaseURI);\n        setNotRevealedURI(_initNotRevealedUri);\n    }\n\n    // internal\n    function _baseURI() internal view virtual override returns (string memory) {\n        return baseURI;\n    }\n\n    // public\n    function mint(uint256 _mintAmount) public payable {\n        require(\n            block.timestamp >= timeDeployed + allowMintingAfter,\n            \"Minting now allowed yet\"\n        );\n\n        require(balanceOf(msg.sender) == 0, \"Only 1 mint per account\");\n\n        uint256 supply = totalSupply();\n        require(!isPaused);\n        require(_mintAmount > 0);\n        require(_mintAmount <= maxMintAmount);\n        require(supply + _mintAmount <= maxSupply);\n\n        if (msg.sender != owner()) {\n            require(msg.value >= cost * _mintAmount);\n        }\n\n        for (uint256 i = 1; i <= _mintAmount; i++) {\n            _safeMint(msg.sender, supply + i);\n        }\n    }\n\n    function walletOfOwner(address _owner)\n        public\n        view\n        returns (uint256[] memory)\n    {\n        uint256 ownerTokenCount = balanceOf(_owner);\n        uint256[] memory tokenIds = new uint256[](ownerTokenCount);\n        for (uint256 i; i < ownerTokenCount; i++) {\n            tokenIds[i] = tokenOfOwnerByIndex(_owner, i);\n        }\n        return tokenIds;\n    }\n\n    function tokenURI(uint256 tokenId)\n        public\n        view\n        virtual\n        override\n        returns (string memory)\n    {\n        require(\n            _exists(tokenId),\n            \"ERC721Metadata: URI query for nonexistent token\"\n        );\n\n        if (isRevealed == false) {\n            return notRevealedUri;\n        }\n\n        string memory currentBaseURI = _baseURI();\n        return\n            bytes(currentBaseURI).length > 0\n                ? string(\n                    abi.encodePacked(\n                        currentBaseURI,\n                        tokenId.toString(),\n                        baseExtension\n                    )\n                )\n                : \"\";\n    }\n\n    function getSecondsUntilMinting() public view returns (uint256) {\n        if (block.timestamp < timeDeployed + allowMintingAfter) {\n            return (timeDeployed + allowMintingAfter) - block.timestamp;\n        } else {\n            return 0;\n        }\n    }\n\n    // Only Owner Functions\n    function setIsRevealed(bool _state) public onlyOwner {\n        isRevealed = _state;\n    }\n\n    function setCost(uint256 _newCost) public onlyOwner {\n        cost = _newCost;\n    }\n\n    function setmaxMintAmount(uint256 _newmaxMintAmount) public onlyOwner {\n        maxMintAmount = _newmaxMintAmount;\n    }\n\n    function setNotRevealedURI(string memory _notRevealedURI) public onlyOwner {\n        notRevealedUri = _notRevealedURI;\n    }\n\n    function setBaseURI(string memory _newBaseURI) public onlyOwner {\n        baseURI = _newBaseURI;\n    }\n\n    function setBaseExtension(string memory _newBaseExtension)\n        public\n        onlyOwner\n    {\n        baseExtension = _newBaseExtension;\n    }\n\n    function setIsPaused(bool _state) public onlyOwner {\n        isPaused = _state;\n    }\n\n    function withdraw() public payable onlyOwner {\n        (bool success, ) = payable(msg.sender).call{\n            value: address(this).balance\n        }(\"\");\n        require(success);\n    }\n}\n",
  "sourcePath": "/Users/GildasOswald/src/Portfolio-Blockchain/NFTs/punks-nft/open_punks/src/contracts/OpenPunks.sol",
  "compiler": {
    "name": "solc",
    "version": "0.8.9+commit.e5eed63a.Emscripten.clang"
  },
  "schemaVersion": "3.4.10",
  "updatedAt": "2022-12-20T16:33:40.236Z",
  "networkType": "ethereum",
  "devdoc": {
    "kind": "dev",
    "methods": {
      "approve(address,uint256)": {
        "details": "See {IERC721-approve}."
      },
      "balanceOf(address)": {
        "details": "See {IERC721-balanceOf}."
      },
      "getApproved(uint256)": {
        "details": "See {IERC721-getApproved}."
      },
      "isApprovedForAll(address,address)": {
        "details": "See {IERC721-isApprovedForAll}."
      },
      "name()": {
        "details": "See {IERC721Metadata-name}."
      },
      "owner()": {
        "details": "Returns the address of the current owner."
      },
      "ownerOf(uint256)": {
        "details": "See {IERC721-ownerOf}."
      },
      "renounceOwnership()": {
        "details": "Leaves the contract without owner. It will not be possible to call `onlyOwner` functions anymore. Can only be called by the current owner. NOTE: Renouncing ownership will leave the contract without an owner, thereby removing any functionality that is only available to the owner."
      },
      "safeTransferFrom(address,address,uint256)": {
        "details": "See {IERC721-safeTransferFrom}."
      },
      "safeTransferFrom(address,address,uint256,bytes)": {
        "details": "See {IERC721-safeTransferFrom}."
      },
      "setApprovalForAll(address,bool)": {
        "details": "See {IERC721-setApprovalForAll}."
      },
      "supportsInterface(bytes4)": {
        "details": "See {IERC165-supportsInterface}."
      },
      "symbol()": {
        "details": "See {IERC721Metadata-symbol}."
      },
      "tokenByIndex(uint256)": {
        "details": "See {IERC721Enumerable-tokenByIndex}."
      },
      "tokenOfOwnerByIndex(address,uint256)": {
        "details": "See {IERC721Enumerable-tokenOfOwnerByIndex}."
      },
      "tokenURI(uint256)": {
        "details": "See {IERC721Metadata-tokenURI}."
      },
      "totalSupply()": {
        "details": "See {IERC721Enumerable-totalSupply}."
      },
      "transferFrom(address,address,uint256)": {
        "details": "See {IERC721-transferFrom}."
      },
      "transferOwnership(address)": {
        "details": "Transfers ownership of the contract to a new account (`newOwner`). Can only be called by the current owner."
      }
    },
    "version": 1
  },
  "userdoc": {
    "kind": "user",
    "methods": {},
    "version": 1
  }
}