{
  "contractName": "MySMCFactory",
  "abi": [
    {
      "constant": true,
      "inputs": [],
      "name": "feePerAutodistrib",
      "outputs": [
        {
          "name": "",
          "type": "uint256"
        }
      ],
      "payable": false,
      "stateMutability": "view",
      "type": "function"
    },
    {
      "constant": true,
      "inputs": [],
      "name": "serviceFeePercentage",
      "outputs": [
        {
          "name": "",
          "type": "uint256"
        }
      ],
      "payable": false,
      "stateMutability": "view",
      "type": "function"
    },
    {
      "constant": false,
      "inputs": [],
      "name": "renounceOwnership",
      "outputs": [],
      "payable": false,
      "stateMutability": "nonpayable",
      "type": "function"
    },
    {
      "constant": true,
      "inputs": [],
      "name": "owner",
      "outputs": [
        {
          "name": "",
          "type": "address"
        }
      ],
      "payable": false,
      "stateMutability": "view",
      "type": "function"
    },
    {
      "constant": true,
      "inputs": [],
      "name": "isOwner",
      "outputs": [
        {
          "name": "",
          "type": "bool"
        }
      ],
      "payable": false,
      "stateMutability": "view",
      "type": "function"
    },
    {
      "constant": false,
      "inputs": [
        {
          "name": "newOwner",
          "type": "address"
        }
      ],
      "name": "transferOwnership",
      "outputs": [],
      "payable": false,
      "stateMutability": "nonpayable",
      "type": "function"
    },
    {
      "inputs": [],
      "payable": false,
      "stateMutability": "nonpayable",
      "type": "constructor"
    },
    {
      "anonymous": false,
      "inputs": [
        {
          "indexed": false,
          "name": "adrs",
          "type": "address"
        },
        {
          "indexed": false,
          "name": "mail",
          "type": "bytes32"
        }
      ],
      "name": "NewUserMail",
      "type": "event"
    },
    {
      "anonymous": false,
      "inputs": [
        {
          "indexed": false,
          "name": "the",
          "type": "string"
        },
        {
          "indexed": false,
          "name": "newAddress",
          "type": "address"
        },
        {
          "indexed": false,
          "name": "managers",
          "type": "address[4]"
        },
        {
          "indexed": false,
          "name": "totalPoolValue",
          "type": "uint256"
        },
        {
          "indexed": false,
          "name": "allfees",
          "type": "uint256[4]"
        },
        {
          "indexed": false,
          "name": "minAmountPerContributor",
          "type": "uint256"
        },
        {
          "indexed": false,
          "name": "maxAmountPerContributor",
          "type": "uint256"
        },
        {
          "indexed": false,
          "name": "destinationAddress",
          "type": "address"
        },
        {
          "indexed": false,
          "name": "dataField",
          "type": "bytes"
        },
        {
          "indexed": false,
          "name": "isWhitelist",
          "type": "bool"
        }
      ],
      "name": "ContractCreated",
      "type": "event"
    },
    {
      "anonymous": false,
      "inputs": [
        {
          "indexed": false,
          "name": "newAddress",
          "type": "address"
        }
      ],
      "name": "FactoryCreated",
      "type": "event"
    },
    {
      "anonymous": false,
      "inputs": [
        {
          "indexed": false,
          "name": "feePercentage",
          "type": "uint256"
        },
        {
          "indexed": false,
          "name": "feePerSending",
          "type": "uint256"
        }
      ],
      "name": "ServiceFeePercentageAndFeePerSending",
      "type": "event"
    },
    {
      "anonymous": false,
      "inputs": [
        {
          "indexed": true,
          "name": "previousOwner",
          "type": "address"
        },
        {
          "indexed": true,
          "name": "newOwner",
          "type": "address"
        }
      ],
      "name": "OwnershipTransferred",
      "type": "event"
    },
    {
      "constant": false,
      "inputs": [
        {
          "name": "the",
          "type": "string"
        },
        {
          "name": "mail",
          "type": "bytes32"
        },
        {
          "name": "managers",
          "type": "address[4]"
        },
        {
          "name": "totalPoolValue",
          "type": "uint256"
        },
        {
          "name": "minAmountPerContributor",
          "type": "uint256"
        },
        {
          "name": "maxAmountPerContributor",
          "type": "uint256"
        },
        {
          "name": "isWhiteList",
          "type": "bool"
        },
        {
          "name": "destinationAddress",
          "type": "address"
        },
        {
          "name": "dataField",
          "type": "bytes"
        },
        {
          "name": "allfees",
          "type": "uint256[4]"
        }
      ],
      "name": "create",
      "outputs": [],
      "payable": false,
      "stateMutability": "nonpayable",
      "type": "function"
    },
    {
      "constant": false,
      "inputs": [
        {
          "name": "percentageTime100",
          "type": "uint256"
        },
        {
          "name": "feePerAutodistribution",
          "type": "uint256"
        }
      ],
      "name": "setServiceFeePercentage",
      "outputs": [
        {
          "name": "",
          "type": "bool"
        }
      ],
      "payable": false,
      "stateMutability": "nonpayable",
      "type": "function"
    },
    {
      "constant": false,
      "inputs": [
        {
          "name": "mail",
          "type": "bytes32"
        },
        {
          "name": "adr",
          "type": "address"
        }
      ],
      "name": "verifyUser",
      "outputs": [],
      "payable": false,
      "stateMutability": "nonpayable",
      "type": "function"
    }
  ],
  "bytecode": "0x608060405266d529ae9e860000600155600560025534801561002057600080fd5b5060008054600160a060020a0319163317808255604051600160a060020a039190911691907f8be0079c531659141344cd1fd0a4f28419497f9722a3daafe3b4186f6b6457e0908290a36040805130815290517fcd011e85967592f54bff824c845ac9b3e769e0f54ba0d66b4d76ac0f77fa2a009181900360200190a1614166806100ac6000396000f3006080604052600436106100985763ffffffff7c01000000000000000000000000000000000000000000000000000000006000350416630be5534e811461009d5780630d0f03a5146100cc578063480736f2146101df578063603ef64914610206578063715018a61461021b5780638da5cb5b146102305780638f32d59b1461026157806393a486e614610276578063f2fde38b1461029a575b600080fd5b3480156100a957600080fd5b506100b86004356024356102bb565b604080519115158252519081900360200190f35b3480156100d857600080fd5b506040805160206004803580820135601f81018490048402850184019095528484526101dd9436949293602493928401919081908401838280828437505060408051608081810190925295988735989097909660a08201965094506020019250600491508390839080828437505060408051602060a088013589018035601f81018390048302840183018552808452979a89359a8a8401359a95860135996060870135151599506080870135600160a060020a031698509196509460c001939291820191819084018382808284375050604080516080818101909252959897968181019695509350600492508491508390808284375093965061031e95505050505050565b005b3480156101eb57600080fd5b506101f46106ed565b60408051918252519081900360200190f35b34801561021257600080fd5b506101f46106f3565b34801561022757600080fd5b506101dd6106f9565b34801561023c57600080fd5b50610245610763565b60408051600160a060020a039092168252519081900360200190f35b34801561026d57600080fd5b506100b8610772565b34801561028257600080fd5b506101dd600435600160a060020a0360243516610783565b3480156102a657600080fd5b506101dd600160a060020a0360043516610868565b60006102c5610772565b15156102d057600080fd5b60028390556001829055604080518481526020810184905281517fcffbe83e02513defeecad98cf3bcb44cc341521ae2a22b96838f8ee8785a5de7929181900390910190a150600192915050565b8751600090600160a060020a031633146103bf57604080517f08c379a000000000000000000000000000000000000000000000000000000000815260206004820152602b60248201527f53656e646572206d757374206265207468652073616d6520617320616464726560448201527f7320746f20766572696679000000000000000000000000000000000000000000606482015290519081900360840190fd5b885160408051600160a060020a039092168252602082018c905280517fb738c2a4d15a617b6f90d8769d5832f841fd429b592bf3c62326419dee15b0ac9281900390910190a1888883898988888b610415610904565b8089608080838360005b8381101561043757818101518382015260200161041f565b5050505090500188815260200187600460200280838360005b83811015610468578181015183820152602001610450565b5050505090500186815260200185815260200184600160a060020a0316600160a060020a031681526020018060200183151515158152602001828103825284818151815260200191508051906020019080838360005b838110156104d65781810151838201526020016104be565b50505050905090810190601f1680156105035780820380516001836020036101000a031916815260200191505b509950505050505050505050604051809103906000f08015801561052b573d6000803e3d6000fd5b5090507f14054e473a59c0a66b8c99b895bcb89c8f0b9305ab3be80b72728f93424497ff8b828b8b868c8c8b8b8e60405180806020018b600160a060020a0316600160a060020a031681526020018a600460200280838360005b8381101561059d578181015183820152602001610585565b5050505090500189815260200188600460200280838360005b838110156105ce5781810151838201526020016105b6565b5050505090500187815260200186815260200185600160a060020a0316600160a060020a03168152602001806020018415151515815260200183810383528d818151815260200191508051906020019080838360005b8381101561063c578181015183820152602001610624565b50505050905090810190601f1680156106695780820380516001836020036101000a031916815260200191505b50838103825285518152855160209182019187019080838360005b8381101561069c578181015183820152602001610684565b50505050905090810190601f1680156106c95780820380516001836020036101000a031916815260200191505b509c5050505050505050505050505060405180910390a15050505050505050505050565b60015481565b60025481565b610701610772565b151561070c57600080fd5b60008054604051600160a060020a03909116907f8be0079c531659141344cd1fd0a4f28419497f9722a3daafe3b4186f6b6457e0908390a36000805473ffffffffffffffffffffffffffffffffffffffff19169055565b600054600160a060020a031690565b600054600160a060020a0316331490565b600160a060020a038116331461082057604080517f08c379a000000000000000000000000000000000000000000000000000000000815260206004820152602b60248201527f53656e646572206d757374206265207468652073616d6520617320616464726560448201527f7320746f20766572696679000000000000000000000000000000000000000000606482015290519081900360840190fd5b60408051600160a060020a03831681526020810184905281517fb738c2a4d15a617b6f90d8769d5832f841fd429b592bf3c62326419dee15b0ac929181900390910190a15050565b610870610772565b151561087b57600080fd5b61088481610887565b50565b600160a060020a038116151561089c57600080fd5b60008054604051600160a060020a03808516939216917f8be0079c531659141344cd1fd0a4f28419497f9722a3daafe3b4186f6b6457e091a36000805473ffffffffffffffffffffffffffffffffffffffff1916600160a060020a0392909216919091179055565b6040516138268061091583390190560060806040523480156200001157600080fd5b5060405162003826380380620038268339810160405260808101516101208201516101408301516101608401516101808501516101a086015160a08701949392918701906010805460ff19166001908117909155620000739089600462000113565b50600587905562000088600787600462000170565b5066d529ae9e860000600760030155600c859055600d849055600e8054600160a060020a031916600160a060020a0385161790558151620000d190600f906020850190620001af565b506018805491151560ff19928316179055600060128190556013819055600b805483169055601455601a80549091166001179055506200026895505050505050565b82600481019282156200015e579160200282015b828111156200015e5782518254600160a060020a031916600160a060020a0390911617825560209092019160019091019062000127565b506200016c92915062000221565b5090565b8260048101928215620001a1579160200282015b82811115620001a157825182559160200191906001019062000184565b506200016c9291506200024b565b828054600181600116156101000203166002900490600052602060002090601f016020900481019282601f10620001f257805160ff1916838001178555620001a1565b82800160010185558215620001a15791820182811115620001a157825182559160200191906001019062000184565b6200024891905b808211156200016c578054600160a060020a031916815560010162000228565b90565b6200024891905b808211156200016c576000815560010162000252565b6135ae80620002786000396000f3006080604052600436106100fb5763ffffffff7c0100000000000000000000000000000000000000000000000000000000600035041663084edc3c81146102825780630d7a3b5f146102a957806318b1005f146102f75780632e1a7d4d1461030c578063481d4ca61461032457806352c790ee14610384578063645bde63146103a557806366e2c4de146103ba578063a8b6cc74146103cf578063c9d41631146103e4578063d0e30db014610405578063d38f18fb1461040d578063dfe3832a14610422578063e92816a814610461578063eae4de0314610488578063f1835db71461049d578063f2cc448a146104dd578063fa86e69e146104f2575b60105460ff16600514610158576040805160e560020a62461bcd02815260206004820152601960248201527f506f6f6c205374617465206d75737420626520726566756e6400000000000000604482015290519081900360640190fd5b6010546101009004600160a060020a031633146101e5576040805160e560020a62461bcd02815260206004820152602160248201527f53656e646572206d7573742062652074686520726967687420726566756e646560448201527f7200000000000000000000000000000000000000000000000000000000000000606482015290519081900360840190fd5b6000341161023d576040805160e560020a62461bcd02815260206004820181905260248201527f796f75206d7573742073656e64206d6f7265207468616e203020657468657220604482015290519081900360640190fd5b601254610250903463ffffffff61050a16565b601281905560405134907f0570c42ddfd7a36e18fcb1d3c19acce0397561e5ac3fe2359c6362840a51258390600090a3005b34801561028e57600080fd5b50610297610527565b60408051918252519081900360200190f35b6040805160206004803580820135601f81018490048402850184019095528484526102f594369492936024939284019190819084018382808284375094975061052d9650505050505050565b005b34801561030357600080fd5b5061029761079b565b34801561031857600080fd5b506102f56004356107a1565b34801561033057600080fd5b5060408051602060046024803582810135601f81018590048502860185019096528585526102f595833515159536956044949193909101919081908401838280828437509497506110d59650505050505050565b34801561039057600080fd5b506102f5600160a060020a036004351661125d565b3480156103b157600080fd5b50610297611661565b3480156103c657600080fd5b506102f5611667565b3480156103db57600080fd5b506102f56119b9565b3480156103f057600080fd5b506102f5600160a060020a0360043516611ea6565b6102f561210f565b34801561041957600080fd5b50610297612319565b34801561042e57600080fd5b50610443600160a060020a036004351661231f565b60408051938452602084019290925282820152519081900360600190f35b34801561046d57600080fd5b506102f560ff60043516600160a060020a0360243516612340565b34801561049457600080fd5b506102976126fd565b3480156104a957600080fd5b506104c160043560ff60243516604435606435612703565b60408051600160a060020a039092168252519081900360200190f35b3480156104e957600080fd5b506102f5612866565b3480156104fe57600080fd5b506104c1600435612eb6565b60008282018381101561051c57600080fd5b8091505b5092915050565b60065481565b806105383382612ed3565b151561058e576040805160e560020a62461bcd02815260206004820152601260248201527f4e6f74206f776e6572206974207365656d730000000000000000000000000000604482015290519081900360640190fd5b60185460ff1615156105ea576040805160e560020a62461bcd02815260206004820152601360248201527f556e617574686f72697a656420416374696f6e00000000000000000000000000604482015290519081900360640190fd5b60105460ff16600114610647576040805160e560020a62461bcd02815260206004820152601060248201527f6465706f7369742073746174653d3d3100000000000000000000000000000000604482015290519081900360640190fd5b600c543410156106b5576040805160e560020a62461bcd02815260206004820152602c60248201527f6465706f736974206d73672e76616c7565203e3d204d696e416d6f756e7450656044820152600080516020613543833981519152606482015290519081900360840190fd5b600d54341115610723576040805160e560020a62461bcd02815260206004820152602c60248201527f6465706f736974206d73672e76616c7565203c3d204d6178416d6f756e7450656044820152600080516020613543833981519152606482015290519081900360840190fd5b6006546005546107389163ffffffff61307216565b34111561078f576040805160e560020a62461bcd02815260206004820152601960248201527f6e6f206d6f726520737061636520666f72206465706f73697400000000000000604482015290519081900360640190fd5b610797613089565b5050565b60155481565b60105460009081908190819060ff1660051415610a3b57600b5460ff166007600201541461083f576040805160e560020a62461bcd02815260206004820152602560248201527f7765206d757374206e6f7420626520696e206175746f6469737472696275746560448201527f206d6f6465000000000000000000000000000000000000000000000000000000606482015290519081900360840190fd5b600060125411801561085e575033600090815260166020526040812054115b15156108da576040805160e560020a62461bcd02815260206004820152603d60248201527f526566756e64206e6f7420726563656976656420616e6420746865207573657260448201527f206d757374206861766520636f6e7472696275746564206265666f7265000000606482015290519081900360840190fd5b600654601254336000908152601660205260409020546109119291610905919063ffffffff61319416565b9063ffffffff6131c216565b3360009081526016602052604090206001015490945061093890859063ffffffff61307216565b925060008311610992576040805160e560020a62461bcd02815260206004820152601460248201527f496e73756666696369656e742062616c616e6365000000000000000000000000604482015290519081900360640190fd5b604051339084156108fc029085906000818181858888f193505050501580156109bf573d6000803e3d6000fd5b506015546109d3908463ffffffff61050a16565b50336000908152601660205260409020600101546109f890849063ffffffff61050a16565b3360008181526016602052604080822060010193909355915185927f7b27e0c6a081f78103bb4f7477456b28a1f80fee2f5d5d31a31f7e4f961ef6d591a36110ce565b60105460ff1660041415610d9957600b5460ff1660076002015414610ad0576040805160e560020a62461bcd02815260206004820152602560248201527f7765206d757374206e6f7420626520696e206175746f6469737472696275746560448201527f206d6f6465000000000000000000000000000000000000000000000000000000606482015290519081900360840190fd5b6000601354118015610aef575033600090815260166020526040812054115b1515610b6b576040805160e560020a62461bcd02815260206004820152603760248201527f746f6b656e73206e6f7420726563656976656420796574206f7220796f75206e60448201527f6576657220636f6e7472696275746564206265666f7265000000000000000000606482015290519081900360840190fd5b60065460135433600090815260166020526040902054610b969291610905919063ffffffff61319416565b33600090815260166020526040902060020154909250610bbd90839063ffffffff61307216565b905060008111610c17576040805160e560020a62461bcd02815260206004820152601460248201527f496e73756666696369656e742062616c616e6365000000000000000000000000604482015290519081900360640190fd5b60115460008054600160a060020a031916600160a060020a0392831617808255604080517fa9059cbb000000000000000000000000000000000000000000000000000000008152336004820152602481018690529051919093169263a9059cbb9260448083019360209390929083900390910190829087803b158015610c9c57600080fd5b505af1158015610cb0573d6000803e3d6000fd5b505050506040513d6020811015610cc657600080fd5b50511515610d1e576040805160e560020a62461bcd02815260206004820152601660248201527f546f6b656e73205472616e73666572206661696c656400000000000000000000604482015290519081900360640190fd5b601454610d31908263ffffffff61050a16565b5033600090815260166020526040902060020154610d5690829063ffffffff61050a16565b3360008181526016602052604080822060020193909355915183927f88a7beed03bcc2b9b977d5f8df1b5126c7199951f185b0a35e6e8a52c559b9bf91a36110ce565b60105460ff1660011480610db2575060105460ff166002145b1515610e2e576040805160e560020a62461bcd02815260206004820152602660248201527f506f6f6c205374617465206d75737420626520656974686572206f70656e2c2060448201527f63616e63656c0000000000000000000000000000000000000000000000000000606482015290519081900360840190fd5b3360009081526016602052604081205411610eb9576040805160e560020a62461bcd02815260206004820152602560248201527f7468652075736572206d757374206861766520636f6e7472696275746564206260448201527f65666f7265000000000000000000000000000000000000000000000000000000606482015290519081900360840190fd5b33600090815260166020526040902054851115610f6c576040805160e560020a62461bcd02815260206004820152604e60248201527f416d6f756e7420746f2077697468647261772073686f756c64206265206c657360448201527f73206f7220657175616c20746f20616d6f756e7420696e20636f6e747261637460648201527f20666f7220746869732075736572000000000000000000000000000000000000608482015290519081900360a40190fd5b60095460001015610ffe5733600090815260166020526040902054851480610fa857506009543360009081526016602052604090205486900310155b1515610ffe576040805160e560020a62461bcd02815260206004820152601a60248201527f74686572652069732061206d696e696d756d20616d6f756e7420000000000000604482015290519081900360640190fd5b3360009081526016602052604090205461101e908663ffffffff61307216565b3360009081526016602052604090205560105460ff16600114156110535760065461104f908663ffffffff61307216565b6006555b33600090815260166020526040902054151561107257611072336131e5565b604051339086156108fc029087906000818181858888f1935050505015801561109f573d6000803e3d6000fd5b50604051859033907f54f8674ab39c65ead0148bb165c8fde2e439a0190c35d70e279b89de51f5d49090600090a35b5050505050565b6110de336132a8565b1515611122576040805160e560020a62461bcd0281526020600482015260136024820152600080516020613563833981519152604482015290519081900360640190fd5b60105460ff1660011461117f576040805160e560020a62461bcd02815260206004820152601160248201527f706f6f6c206d757374206265206f70656e000000000000000000000000000000604482015290519081900360640190fd5b6018805460ff191683151517905580516111a090601990602084019061345e565b50601854604080516020808252601980546002600019600183161561010002019091160491830182905260ff9094161515937ff916175afa9cf4d82f5950f37766e24b9350cee084f7dbb1e4b607a85c20af079390929182918201908490801561124b5780601f106112205761010080835404028352916020019161124b565b820191906000526020600020905b81548152906001019060200180831161122e57829003601f168201915b50509250505060405180910390a25050565b6000611268336132a8565b15156112ac576040805160e560020a62461bcd0281526020600482015260136024820152600080516020613563833981519152604482015290519081900360640190fd5b60105460ff1660031461132f576040805160e560020a62461bcd02815260206004820152602e60248201527f576520617265206e6f7420696e2074686520726967687420737461746520746f60448201527f20636f6e6669726d20746f6b656e000000000000000000000000000000000000606482015290519081900360840190fd5b600160a060020a03821615156113b5576040805160e560020a62461bcd02815260206004820152602660248201527f746f6b656e20636f6e747261637420616464726573732063616e206e6f74206260448201527f65206e756c6c0000000000000000000000000000000000000000000000000000606482015290519081900360840190fd5b6113be82613396565b151561143a576040805160e560020a62461bcd02815260206004820152602160248201527f54686973206973206e6f7420612076616c696420536d617274436f6e7472616360448201527f7400000000000000000000000000000000000000000000000000000000000000606482015290519081900360840190fd5b60008054600160a060020a031916600160a060020a03848116919091178083556040805160e060020a6370a08231028152306004820152905191909216916370a0823191602480830192602092919082900301818787803b15801561149e57600080fd5b505af11580156114b2573d6000803e3d6000fd5b505050506040513d60208110156114c857600080fd5b50511161151f576040805160e560020a62461bcd02815260206004820152601d60248201527f546f6b656e732068617665206e6f74206265656e207265636569766564000000604482015290519081900360640190fd5b60108054600460ff19909116811790915560118054600160a060020a031916600160a060020a0385811691909117909155600080546040805160e060020a6370a082310281523095810195909552519216926370a082319260248083019360209383900390910190829087803b15801561159857600080fd5b505af11580156115ac573d6000803e3d6000fd5b505050506040513d60208110156115c257600080fd5b50516013556115e66103e8610905600760015b01546006549063ffffffff61319416565b604051909150734fc046ba137c6b75e98b56cbb33ca58869cc51619082156108fc029083906000818181858888f1935050505015801561162a573d6000803e3d6000fd5b50601354601154601054604051600160a060020a039092169160ff9091169060008051602061352383398151915290600090a45050565b60145481565b6000806000611675336132a8565b15156116b9576040805160e560020a62461bcd0281526020600482015260136024820152600080516020613563833981519152604482015290519081900360640190fd5b60105460ff1660041461173c576040805160e560020a62461bcd02815260206004820152603360248201527f576520617265206e6f7420696e2074686520726967687420737461746520666f60448201527f72206e65772064726f70206f6620746f6b656e00000000000000000000000000606482015290519081900360840190fd5b60115460008054600160a060020a031916600160a060020a03928316178082556040805160e060020a6370a082310281523060048201529051929391909116916370a082319160248082019260209290919082900301818787803b1580156117a357600080fd5b505af11580156117b7573d6000803e3d6000fd5b505050506040513d60208110156117cd57600080fd5b50511161184a576040805160e560020a62461bcd02815260206004820152602660248201527f4e657720546f6b656e732044726f702068617665206e6f74206265656e20726560448201527f6365697665640000000000000000000000000000000000000000000000000000606482015290519081900360840190fd5b600080546040805160e060020a6370a082310281523060048201529051600160a060020a03909216926370a08231926024808401936020939083900390910190829087803b15801561189b57600080fd5b505af11580156118af573d6000803e3d6000fd5b505050506040513d60208110156118c557600080fd5b505160145460135491945090039150818311611977576040805160e560020a62461bcd02815260206004820152605260248201527f63757272656e74546f6b656e42616c616e6365206973203c20737570706f736560448201527f6442616c616e636520736f204e657720546f6b656e732044726f70206861766560648201527f206e6f74206265656e2072656365697665640000000000000000000000000000608482015290519081900360a40190fd5b50601380548284039081019182905560405190919082907fbad02f704ecd250cc40566d5d29836f4e1e857a5d09def21dc655735468af35490600090a3505050565b60105460009081908190819060ff16600514611a1f576040805160e560020a62461bcd02815260206004820152601960248201527f506f6f6c205374617465206d75737420626520726566756e6400000000000000604482015290519081900360640190fd5b33730470b55cbc03671e42f127fd1c49e5b44f98abce14611ab0576040805160e560020a62461bcd02815260206004820152603460248201527f596f7520646f206e6f7420686176652074686520726967687420746f206c617560448201527f6e6368206175746f646973747269627574696f6e000000000000000000000000606482015290519081900360840190fd5b600b5460ff1660076002015411611b37576040805160e560020a62461bcd02815260206004820152602160248201527f616c6c206175746f646973747269627574652068617665206265656e2075736560448201527f6400000000000000000000000000000000000000000000000000000000000000606482015290519081900360840190fd5b6000303111611b90576040805160e560020a62461bcd02815260206004820152601260248201527f42616c616e636520697320746f6f206c6f770000000000000000000000000000604482015290519081900360640190fd5b601254600010611c10576040805160e560020a62461bcd02815260206004820152603d60248201527f526566756e64206e6f7420726563656976656420616e6420746865207573657260448201527f206d757374206861766520636f6e7472696275746564206265666f7265000000606482015290519081900360840190fd5b5060009250829150819050805b601754811015611e5757600060166000601784815481101515611c3c57fe5b6000918252602080832090910154600160a060020a031683528201929092526040019020541115611e4f57611cb760065461090560125460166000601787815481101515611c8657fe5b6000918252602080832090910154600160a060020a031683528201929092526040019020549063ffffffff61319416565b9250611d0460166000601784815481101515611ccf57fe5b6000918252602080832090910154600160a060020a03168352820192909252604001902060010154849063ffffffff61307216565b9150811515611d655781601782815481101515611d1d57fe5b6000918252602082200154604051600160a060020a03909116917faedb138509f92479c3e03f3e353140bb735c1cb441d002df4aae68c2060fed6791a3836001019350611e4f565b601554611d78908363ffffffff61050a16565b50611dc460166000601784815481101515611d8f57fe5b6000918252602080832090910154600160a060020a03168352820192909252604001902060010154839063ffffffff61050a16565b60166000601784815481101515611dd757fe5b6000918252602080832090910154600160a060020a031683528201929092526040019020600101556017805482908110611e0d57fe5b6000918252602082200154604051600160a060020a039091169184156108fc02918591818181858888f19350505050158015611e4d573d6000803e3d6000fd5b505b600101611c1d565b600b805460ff198116600160ff928316018216179182905560405186821692909116907f9e5d47323608d7069f5d18c75ab79da65afc4d9b4fcd4239eb60f19f14294a1c90600090a350505050565b600080600080611eb5336132a8565b1515611ef9576040805160e560020a62461bcd0281526020600482015260136024820152600080516020613563833981519152604482015290519081900360640190fd5b60105460ff16600114611f56576040805160e560020a62461bcd02815260206004820152601760248201527f506f6f6c205374617465206d757374206265206f70656e000000000000000000604482015290519081900360640190fd5b600e8054600160a060020a031916600160a060020a038716179055601754611f9890611f8f90600760035b01549063ffffffff61319416565b60076002611f81565b9350611fac6103e8610905600760016115d5565b9250611fbf6064610905600760006115d5565b9150611ff3600760030154611fe784611fe787611fe78a60065461307290919063ffffffff16565b9063ffffffff61307216565b600e54604051919250600160a060020a03169082156108fc029083906000818181858888f1935050505015801561202e573d6000803e3d6000fd5b50600154604051600160a060020a03909116906108fc8415029084906000818181858888f19350505050158015612069573d6000803e3d6000fd5b50600954600010156120b857604051730470b55cbc03671e42f127fd1c49e5b44f98abce9085156108fc029086906000818181858888f193505050501580156120b6573d6000803e3d6000fd5b505b6010805460ff19166003179055604080513381529051600160a060020a03871691849184917fbce112bbcd5dd2cc44329495b359c0f68b668491a425382783da8c2c713e708a919081900360200190a45050505050565b60185460ff161561216a576040805160e560020a62461bcd02815260206004820152600c60248201527f57726f6e6720416374696f6e0000000000000000000000000000000000000000604482015290519081900360640190fd5b60105460ff166001146121c7576040805160e560020a62461bcd02815260206004820152601060248201527f6465706f7369742073746174653d3d3100000000000000000000000000000000604482015290519081900360640190fd5b600c54341015612235576040805160e560020a62461bcd02815260206004820152602c60248201527f6465706f736974206d73672e76616c7565203e3d204d696e416d6f756e7450656044820152600080516020613543833981519152606482015290519081900360840190fd5b600d543411156122a3576040805160e560020a62461bcd02815260206004820152602c60248201527f6465706f736974206d73672e76616c7565203c3d204d6178416d6f756e7450656044820152600080516020613543833981519152606482015290519081900360840190fd5b6006546005546122b89163ffffffff61307216565b34111561230f576040805160e560020a62461bcd02815260206004820152601960248201527f6e6f206d6f726520737061636520666f72206465706f73697400000000000000604482015290519081900360640190fd5b612317613089565b565b60055481565b60166020526000908152604090208054600182015460029092015490919083565b612349336132a8565b151561238d576040805160e560020a62461bcd0281526020600482015260136024820152600080516020613563833981519152604482015290519081900360640190fd5b60105460ff16600114806123a6575060105460ff166003145b1515612422576040805160e560020a62461bcd02815260206004820152602660248201527f506f6f6c205374617465206d75737420626520656974686572206f70656e206f60448201527f7220706169640000000000000000000000000000000000000000000000000000606482015290519081900360840190fd5b60008260ff16118015612439575060058260ff1611155b151561248f576040805160e560020a62461bcd02815260206004820152600b60248201527f77726f6e67207374617465000000000000000000000000000000000000000000604482015290519081900360640190fd5b60105460ff166001141561253f578160ff16600214806124b257508160ff166003145b1515612508576040805160e560020a62461bcd02815260206004820152601660248201527f6f70656e20746f2063616e63656c206f72207061696400000000000000000000604482015290519081900360640190fd5b6010805460ff191660ff848116919091179182905560405160009283921690600080516020613523833981519152908390a4610797565b60105460ff1660031415612636578160ff166004148061256257508160ff166005145b15156125b8576040805160e560020a62461bcd02815260206004820152601f60248201527f7061696420746f20746f6b656e2072656365697665206f7220726566756e6400604482015290519081900360640190fd5b6010805460ff191660ff84811691909117918290551660051415612631576010805474ffffffffffffffffffffffffffffffffffffffff001916610100600160a060020a03848116820292909217928390556040516000939182049092169160ff90911690600080516020613523833981519152908490a45b610797565b60105460ff166005141561079757600560ff83161461269f576040805160e560020a62461bcd02815260206004820152601f60248201527f7061696420746f20746f6b656e2072656365697665206f7220726566756e6400604482015290519081900360640190fd5b6010805474ffffffffffffffffffffffffffffffffffffffff001916610100600160a060020a03848116820292909217928390556040516000939182049092169160ff90911690600080516020613523833981519152908490a45050565b60135481565b604080518082018252601c8082527f19457468657265756d205369676e6564204d6573736167653a0a333200000000602080840191825293516000948593849386938c9301918291908083835b6020831061276f5780518252601f199092019160209182019101612750565b51815160209384036101000a600019018019909216911617905292019384525060408051808503815293820190819052835193945092839250908401908083835b602083106127cf5780518252601f1990920191602091820191016127b0565b51815160209384036101000a600019018019909216911617905260408051929094018290038220600080845283830180875282905260ff8f1684870152606084018e9052608084018d905294519098506001965060a080840196509194601f19820194509281900390910191865af115801561284f573d6000803e3d6000fd5b5050604051601f1901519998505050505050505050565b600080808033730470b55cbc03671e42f127fd1c49e5b44f98abce146128fc576040805160e560020a62461bcd02815260206004820152603460248201527f596f7520646f206e6f7420686176652074686520726967687420746f206c617560448201527f6e6368206175746f646973747269627574696f6e000000000000000000000000606482015290519081900360840190fd5b60105460ff1660041461297f576040805160e560020a62461bcd02815260206004820152603c60248201527f546f6b656e732068617665206e6f74206265656e20636f6e6669726d6564206f60448201527f722068617665206e6f74206265656e2072656365697665642079657400000000606482015290519081900360840190fd5b600b5460ff1660076002015411612a06576040805160e560020a62461bcd02815260206004820152602160248201527f616c6c206175746f646973747269627574652068617665206265656e2075736560448201527f6400000000000000000000000000000000000000000000000000000000000000606482015290519081900360840190fd5b600080546040805160e060020a6370a082310281523060048201529051600160a060020a03909216916370a082319160248082019260209290919082900301818787803b158015612a5657600080fd5b505af1158015612a6a573d6000803e3d6000fd5b505050506040513d6020811015612a8057600080fd5b505111612ad7576040805160e560020a62461bcd02815260206004820152601960248201527f546f6b656e732062616c616e636520697320746f6f206c6f7700000000000000604482015290519081900360640190fd5b601a5460ff1615612b7157601a805460ff19169055600080546040805160e060020a6370a082310281523060048201529051600160a060020a03909216926370a08231926024808401936020939083900390910190829087803b158015612b3d57600080fd5b505af1158015612b51573d6000803e3d6000fd5b505050506040513d6020811015612b6757600080fd5b5051601355612bf8565b600080546040805160e060020a6370a082310281523060048201529051600160a060020a03909216926370a08231926024808401936020939083900390910190829087803b158015612bc257600080fd5b505af1158015612bd6573d6000803e3d6000fd5b505050506040513d6020811015612bec57600080fd5b50516013805490910190555b5060009250829150819050805b601754811015612e6157600060166000601784815481101515612c2457fe5b6000918252602080832090910154600160a060020a031683528201929092526040019020541115612e5957612c6e60065461090560135460166000601787815481101515611c8657fe5b9350612cbb60166000601784815481101515612c8657fe5b6000918252602080832090910154600160a060020a03168352820192909252604001902060020154859063ffffffff61307216565b60005460178054929450600160a060020a039091169163a9059cbb919084908110612ce257fe5b6000918252602080832090910154604080517c010000000000000000000000000000000000000000000000000000000063ffffffff8716028152600160a060020a039092166004830152602482018890525160448083019491928390030190829087803b158015612d5257600080fd5b505af1158015612d66573d6000803e3d6000fd5b505050506040513d6020811015612d7c57600080fd5b50511580612d88575081155b15612de55782600101925081601782815481101515612da357fe5b6000918252602082200154604051600160a060020a03909116917f9e7986c1c8e79c73e8ee093db110d629047965ccc68ea7849b6af4d827ff8fc791a3612e59565b601454612df8908363ffffffff61050a16565b5033600090815260166020526040902060020154612e1d90839063ffffffff61050a16565b60166000601784815481101515612e3057fe5b6000918252602080832090910154600160a060020a031683528201929092526040019020600201555b600101612c05565b600b805460ff198116600160ff928316018216179182905560135460405186831693919291909116907f2afe72edf2c0a9dad1bd80c5458bd6ca5d4fbbde2ad29f022fd8d25ee1709bd090600090a450505050565b60018160048110612ec357fe5b0154600160a060020a0316905081565b60008083306040516020018083600160a060020a0316600160a060020a03166c0100000000000000000000000002815260140182600160a060020a0316600160a060020a03166c01000000000000000000000000028152601401925050506040516020818303038152906040526040518082805190602001908083835b60208310612f6f5780518252601f199092019160209182019101612f50565b51815160209384036101000a6000190180199092169116179052604080519290940182900382207f19457468657265756d205369676e6564204d6573736167653a0a33320000000083830152603c8084019190915284518084039091018152605c9092019384905281519195509293508392850191508083835b602083106130085780518252601f199092019160209182019101612fe9565b6001836020036101000a03801982511681845116808217855250505050505090500191505060405180910390209050613041818461339e565b600160a060020a031673bf18b2918a36463d7a84f111d616c65392e91825600160a060020a03161491505092915050565b6000808383111561308257600080fd5b5050900390565b60065461309c903463ffffffff61050a16565b60065533600090815260166020526040812054111561311657336000908152601660205260409020546130d690349063ffffffff61050a16565b3360008181526016602052604080822093909355915134927f2cb77763bc1e8490c1a904905c4d74b4269919aca114464f4bb4d911e60de36491a3612317565b336000818152601660205260408082203490819055601780546001810182559084527fc624b66cc0138b8fabc209247f72d758e1cf3343756d543badbf24212bed8c15018054600160a060020a0319168517905590519092917f2cb77763bc1e8490c1a904905c4d74b4269919aca114464f4bb4d911e60de36491a3565b6000808315156131a75760009150610520565b508282028284828115156131b757fe5b041461051c57600080fd5b6000808083116131d157600080fd5b82848115156131dc57fe5b04949350505050565b60005b6017548110156107975781600160a060020a031660178281548110151561320b57fe5b600091825260209091200154600160a060020a031614156132a05760178054600019810190811061323857fe5b60009182526020909120015460178054600160a060020a03909216918390811061325e57fe5b60009182526020909120018054600160a060020a031916600160a060020a0392909216919091179055601780549061329a9060001983016134dc565b50610797565b6001016131e8565b6000806004600160000154600160a060020a03858116911614156132cf5760019150610520565b600281101580156132ea5750600254600160a060020a031615155b80156133035750600254600160a060020a038581169116145b156133115760019150610520565b6003811015801561332c5750600354600160a060020a031615155b80156133455750600354600160a060020a038581169116145b156133535760019150610520565b6004811015801561336e5750600454600160a060020a031615155b80156133875750600454600160a060020a038581169116145b15610520575060019392505050565b6000903b1190565b6000806000806133ad85613425565b60408051600080825260208083018085528d905260ff8716838501526060830186905260808301859052925195985093965091945060019360a0808401949293601f19830193908390039091019190865af1158015613410573d6000803e3d6000fd5b5050604051601f190151979650505050505050565b6000806000806000808651604114151561343e57600080fd5b505050506020830151604084015160609094015160001a94909392509050565b828054600181600116156101000203166002900490600052602060002090601f016020900481019282601f1061349f57805160ff19168380011785556134cc565b828001600101855582156134cc579182015b828111156134cc5782518255916020019190600101906134b1565b506134d8929150613505565b5090565b81548183558181111561350057600083815260209020613500918101908301613505565b505050565b61351f91905b808211156134d8576000815560010161350b565b90560024b9aac7e42ddb2057c8472ac2eec9e6ec4ce0b17e1e99fc45bb6c2e90fdc57172436f6e7472696275746f72000000000000000000000000000000000000000073656e646572206973206e6f74206f776e657200000000000000000000000000a165627a7a72305820c30d2ddc3db73b891c1ba89f5fa2198fbcde3504e3a1b02f971198ad268b11e80029a165627a7a723058205e4d8a5095eed09f8190d5237f5fd2589b566444277f9f0d1ede531999346f0e0029",
  "source": "pragma solidity ^0.4.24;\nimport \"./MySMC.sol\";\n//import \"../node_modules/openzeppelin-solidity/contracts/ownership/Ownable.sol\";\nimport \"./Ownable.sol\";\n\n// @TODO:\n//MAYBE YOU NEED TO IMPLEMENT ISPAUSABLE AND ALSO \n//BEING ABLE TO TRANSFER YOUR PAYMENT ADDRSS DOWN TO THE CHILDREN\n// TRANSFEROWNERSHIP, RENOUNCEOWNERSHIP, SAFEMATH, PAUSABLE\n//CLEAN USELESS FUNCTION LIKE EQUAL\n\n/**\n * it is the pool factory\n **/\ncontract MySMCFactory is Ownable{\n    uint public feePerAutodistrib = 60 finney;   // cost for each sending to final recipient, also cost for each autodistribution\n    uint public serviceFeePercentage = 5; // percentage taken by us for each pool created   (to divide by 1000)\n    event NewUserMail(address adrs, bytes32 mail); // new event to log new user registration\n    event ContractCreated(string the,       // the is the unique id\n    address newAddress, address[4] managers,uint totalPoolValue, uint[4] allfees, uint minAmountPerContributor, \n    uint maxAmountPerContributor, address destinationAddress, bytes dataField, bool isWhitelist);// event emitted to keep track of the pool created\n    event FactoryCreated(address newAddress);                                         // event emitted to keep track of the pool created\n    event ServiceFeePercentageAndFeePerSending(uint feePercentage, uint feePerSending);// emit an event to say that we have a new \n                                                                                       //percentage for the fee, and a fee per sending or autodistribution\n    // creating a new factory\n    constructor() public{\n        emit FactoryCreated(this);\n    }\n    // Creating a new pool smart contract\n    function create(\n        string the, bytes32 mail, address[4] managers, uint totalPoolValue, uint minAmountPerContributor,\n        uint maxAmountPerContributor, bool isWhiteList, address destinationAddress, \n        bytes dataField, uint[4] allfees) // managerFee, uint numberOfAutodistrib) \n        public {\n        \n        require(managers[0]==msg.sender, \"Sender must be the same as addres to verify\");\n        emit NewUserMail(managers[0],mail);\n\n        // Create pool\n        MySMC aPool = new MySMC(managers, totalPoolValue, allfees, minAmountPerContributor, \n        maxAmountPerContributor, destinationAddress, dataField, isWhiteList);\n        emit ContractCreated(the, aPool, managers, totalPoolValue, allfees, minAmountPerContributor, maxAmountPerContributor, destinationAddress, dataField, isWhiteList);            \n    }\n\n    function setServiceFeePercentage(uint percentageTime100, uint feePerAutodistribution) public onlyOwner returns(bool) {\n        serviceFeePercentage = percentageTime100;\n        feePerAutodistrib = feePerAutodistribution;\n        emit ServiceFeePercentageAndFeePerSending(serviceFeePercentage, feePerAutodistrib);\n        return true;\n    }\n\n    function verifyUser(bytes32 mail, address adr) public{\n        require(adr==msg.sender, \"Sender must be the same as addres to verify\");\n        //require(equal(4), \"\");\n        emit NewUserMail(adr,mail);\n    }\n\n    function equal(uint a) pure private returns (bool) {\n        uint x = 0;\n        for (uint i = 0; i < 32; i++) {\n            uint b = uint(msg.data[35 - i]);\n            x += b * 256**i;\n        }\n        return a == x;\n    }\n}\n",
  "sourcePath": "/Users/GildasOswald/SMC/MySMC/SmartContract/contracts/MySMCFactory.sol",
  "compiler": {
    "name": "solc",
    "version": "0.4.24+commit.e67f0147.Emscripten.clang"
  },
  "schemaVersion": "2.0.0",
  "updatedAt": "2019-03-15T12:35:00.458Z"
}